{
  "contractName": "ShowtimeMT",
  "abi": [
    {
      "inputs": [],
      "stateMutability": "nonpayable",
      "type": "constructor"
    },
    {
      "anonymous": false,
      "inputs": [
        {
          "indexed": true,
          "internalType": "address",
          "name": "account",
          "type": "address"
        },
        {
          "indexed": true,
          "internalType": "address",
          "name": "operator",
          "type": "address"
        },
        {
          "indexed": false,
          "internalType": "bool",
          "name": "approved",
          "type": "bool"
        }
      ],
      "name": "ApprovalForAll",
      "type": "event"
    },
    {
      "anonymous": false,
      "inputs": [
        {
          "indexed": true,
          "internalType": "address",
          "name": "previousOwner",
          "type": "address"
        },
        {
          "indexed": true,
          "internalType": "address",
          "name": "newOwner",
          "type": "address"
        }
      ],
      "name": "OwnershipTransferred",
      "type": "event"
    },
    {
      "anonymous": false,
      "inputs": [
        {
          "indexed": true,
          "internalType": "address",
          "name": "operator",
          "type": "address"
        },
        {
          "indexed": true,
          "internalType": "address",
          "name": "from",
          "type": "address"
        },
        {
          "indexed": true,
          "internalType": "address",
          "name": "to",
          "type": "address"
        },
        {
          "indexed": false,
          "internalType": "uint256[]",
          "name": "ids",
          "type": "uint256[]"
        },
        {
          "indexed": false,
          "internalType": "uint256[]",
          "name": "values",
          "type": "uint256[]"
        }
      ],
      "name": "TransferBatch",
      "type": "event"
    },
    {
      "anonymous": false,
      "inputs": [
        {
          "indexed": true,
          "internalType": "address",
          "name": "operator",
          "type": "address"
        },
        {
          "indexed": true,
          "internalType": "address",
          "name": "from",
          "type": "address"
        },
        {
          "indexed": true,
          "internalType": "address",
          "name": "to",
          "type": "address"
        },
        {
          "indexed": false,
          "internalType": "uint256",
          "name": "id",
          "type": "uint256"
        },
        {
          "indexed": false,
          "internalType": "uint256",
          "name": "value",
          "type": "uint256"
        }
      ],
      "name": "TransferSingle",
      "type": "event"
    },
    {
      "anonymous": false,
      "inputs": [
        {
          "indexed": false,
          "internalType": "string",
          "name": "value",
          "type": "string"
        },
        {
          "indexed": true,
          "internalType": "uint256",
          "name": "id",
          "type": "uint256"
        }
      ],
      "name": "URI",
      "type": "event"
    },
    {
      "anonymous": false,
      "inputs": [
        {
          "indexed": false,
          "internalType": "address",
          "name": "_user",
          "type": "address"
        },
        {
          "indexed": false,
          "internalType": "string",
          "name": "_access",
          "type": "string"
        },
        {
          "indexed": false,
          "internalType": "bool",
          "name": "_enabled",
          "type": "bool"
        }
      ],
      "name": "UserAccessSet",
      "type": "event"
    },
    {
      "inputs": [
        {
          "internalType": "address",
          "name": "account",
          "type": "address"
        },
        {
          "internalType": "uint256",
          "name": "id",
          "type": "uint256"
        }
      ],
      "name": "balanceOf",
      "outputs": [
        {
          "internalType": "uint256",
          "name": "",
          "type": "uint256"
        }
      ],
      "stateMutability": "view",
      "type": "function",
      "constant": true
    },
    {
      "inputs": [
        {
          "internalType": "address[]",
          "name": "accounts",
          "type": "address[]"
        },
        {
          "internalType": "uint256[]",
          "name": "ids",
          "type": "uint256[]"
        }
      ],
      "name": "balanceOfBatch",
      "outputs": [
        {
          "internalType": "uint256[]",
          "name": "",
          "type": "uint256[]"
        }
      ],
      "stateMutability": "view",
      "type": "function",
      "constant": true
    },
    {
      "inputs": [],
      "name": "baseURI",
      "outputs": [
        {
          "internalType": "string",
          "name": "",
          "type": "string"
        }
      ],
      "stateMutability": "view",
      "type": "function",
      "constant": true
    },
    {
      "inputs": [
        {
          "internalType": "address",
          "name": "account",
          "type": "address"
        },
        {
          "internalType": "uint256",
          "name": "id",
          "type": "uint256"
        },
        {
          "internalType": "uint256",
          "name": "value",
          "type": "uint256"
        }
      ],
      "name": "burn",
      "outputs": [],
      "stateMutability": "nonpayable",
      "type": "function"
    },
    {
      "inputs": [
        {
          "internalType": "address",
          "name": "account",
          "type": "address"
        },
        {
          "internalType": "uint256[]",
          "name": "ids",
          "type": "uint256[]"
        },
        {
          "internalType": "uint256[]",
          "name": "values",
          "type": "uint256[]"
        }
      ],
      "name": "burnBatch",
      "outputs": [],
      "stateMutability": "nonpayable",
      "type": "function"
    },
    {
      "inputs": [
        {
          "internalType": "address",
          "name": "admin",
          "type": "address"
        }
      ],
      "name": "isAdmin",
      "outputs": [
        {
          "internalType": "bool",
          "name": "",
          "type": "bool"
        }
      ],
      "stateMutability": "view",
      "type": "function",
      "constant": true
    },
    {
      "inputs": [
        {
          "internalType": "address",
          "name": "account",
          "type": "address"
        },
        {
          "internalType": "address",
          "name": "operator",
          "type": "address"
        }
      ],
      "name": "isApprovedForAll",
      "outputs": [
        {
          "internalType": "bool",
          "name": "",
          "type": "bool"
        }
      ],
      "stateMutability": "view",
      "type": "function",
      "constant": true
    },
    {
      "inputs": [
        {
          "internalType": "address",
          "name": "minter",
          "type": "address"
        }
      ],
      "name": "isMinter",
      "outputs": [
        {
          "internalType": "bool",
          "name": "",
          "type": "bool"
        }
      ],
      "stateMutability": "view",
      "type": "function",
      "constant": true
    },
    {
      "inputs": [
        {
          "internalType": "address",
          "name": "forwarder",
          "type": "address"
        }
      ],
      "name": "isTrustedForwarder",
      "outputs": [
        {
          "internalType": "bool",
          "name": "",
          "type": "bool"
        }
      ],
      "stateMutability": "view",
      "type": "function",
      "constant": true
    },
    {
      "inputs": [],
      "name": "owner",
      "outputs": [
        {
          "internalType": "address",
          "name": "",
          "type": "address"
        }
      ],
      "stateMutability": "view",
      "type": "function",
      "constant": true
    },
    {
      "inputs": [],
      "name": "publicMinting",
      "outputs": [
        {
          "internalType": "bool",
          "name": "",
          "type": "bool"
        }
      ],
      "stateMutability": "view",
      "type": "function",
      "constant": true
    },
    {
      "inputs": [],
      "name": "renounceOwnership",
      "outputs": [],
      "stateMutability": "nonpayable",
      "type": "function"
    },
    {
      "inputs": [
        {
          "internalType": "uint256",
          "name": "_tokenId",
          "type": "uint256"
        },
        {
          "internalType": "uint256",
          "name": "_salePrice",
          "type": "uint256"
        }
      ],
      "name": "royaltyInfo",
      "outputs": [
        {
          "internalType": "address",
          "name": "receiver",
          "type": "address"
        },
        {
          "internalType": "uint256",
          "name": "royaltyAmount",
          "type": "uint256"
        }
      ],
      "stateMutability": "view",
      "type": "function",
      "constant": true
    },
    {
      "inputs": [
        {
          "internalType": "address",
          "name": "from",
          "type": "address"
        },
        {
          "internalType": "address",
          "name": "to",
          "type": "address"
        },
        {
          "internalType": "uint256[]",
          "name": "ids",
          "type": "uint256[]"
        },
        {
          "internalType": "uint256[]",
          "name": "amounts",
          "type": "uint256[]"
        },
        {
          "internalType": "bytes",
          "name": "data",
          "type": "bytes"
        }
      ],
      "name": "safeBatchTransferFrom",
      "outputs": [],
      "stateMutability": "nonpayable",
      "type": "function"
    },
    {
      "inputs": [
        {
          "internalType": "address",
          "name": "from",
          "type": "address"
        },
        {
          "internalType": "address",
          "name": "to",
          "type": "address"
        },
        {
          "internalType": "uint256",
          "name": "id",
          "type": "uint256"
        },
        {
          "internalType": "uint256",
          "name": "amount",
          "type": "uint256"
        },
        {
          "internalType": "bytes",
          "name": "data",
          "type": "bytes"
        }
      ],
      "name": "safeTransferFrom",
      "outputs": [],
      "stateMutability": "nonpayable",
      "type": "function"
    },
    {
      "inputs": [
        {
          "internalType": "address",
          "name": "admin",
          "type": "address"
        },
        {
          "internalType": "bool",
          "name": "enabled",
          "type": "bool"
        }
      ],
      "name": "setAdmin",
      "outputs": [],
      "stateMutability": "nonpayable",
      "type": "function"
    },
    {
      "inputs": [
        {
          "internalType": "address",
          "name": "operator",
          "type": "address"
        },
        {
          "internalType": "bool",
          "name": "approved",
          "type": "bool"
        }
      ],
      "name": "setApprovalForAll",
      "outputs": [],
      "stateMutability": "nonpayable",
      "type": "function"
    },
    {
      "inputs": [
        {
          "internalType": "address",
          "name": "minter",
          "type": "address"
        },
        {
          "internalType": "bool",
          "name": "enabled",
          "type": "bool"
        }
      ],
      "name": "setMinter",
      "outputs": [],
      "stateMutability": "nonpayable",
      "type": "function"
    },
    {
      "inputs": [
        {
          "internalType": "address[]",
          "name": "minters",
          "type": "address[]"
        },
        {
          "internalType": "bool",
          "name": "enabled",
          "type": "bool"
        }
      ],
      "name": "setMinters",
      "outputs": [],
      "stateMutability": "nonpayable",
      "type": "function"
    },
    {
      "inputs": [
        {
          "internalType": "bool",
          "name": "enabled",
          "type": "bool"
        }
      ],
      "name": "setPublicMinting",
      "outputs": [],
      "stateMutability": "nonpayable",
      "type": "function"
    },
    {
      "inputs": [
        {
          "internalType": "address",
          "name": "newOwner",
          "type": "address"
        }
      ],
      "name": "transferOwnership",
      "outputs": [],
      "stateMutability": "nonpayable",
      "type": "function"
    },
    {
      "inputs": [],
      "name": "trustedForwarder",
      "outputs": [
        {
          "internalType": "address",
          "name": "",
          "type": "address"
        }
      ],
      "stateMutability": "view",
      "type": "function",
      "constant": true
    },
    {
      "inputs": [
        {
          "internalType": "bytes4",
          "name": "interfaceId",
          "type": "bytes4"
        }
      ],
      "name": "supportsInterface",
      "outputs": [
        {
          "internalType": "bool",
          "name": "",
          "type": "bool"
        }
      ],
      "stateMutability": "view",
      "type": "function",
      "constant": true
    },
    {
      "inputs": [
        {
          "internalType": "address",
          "name": "recipient",
          "type": "address"
        },
        {
          "internalType": "uint256",
          "name": "amount",
          "type": "uint256"
        },
        {
          "internalType": "string",
          "name": "hash",
          "type": "string"
        },
        {
          "internalType": "bytes",
          "name": "data",
          "type": "bytes"
        },
        {
          "internalType": "address",
          "name": "royaltyRecipient",
          "type": "address"
        },
        {
          "internalType": "uint256",
          "name": "royaltyPercent",
          "type": "uint256"
        }
      ],
      "name": "issueToken",
      "outputs": [
        {
          "internalType": "uint256",
          "name": "",
          "type": "uint256"
        }
      ],
      "stateMutability": "nonpayable",
      "type": "function"
    },
    {
      "inputs": [
        {
          "internalType": "address",
          "name": "recipient",
          "type": "address"
        },
        {
          "internalType": "uint256[]",
          "name": "amounts",
          "type": "uint256[]"
        },
        {
          "internalType": "string[]",
          "name": "hashes",
          "type": "string[]"
        },
        {
          "internalType": "bytes",
          "name": "data",
          "type": "bytes"
        },
        {
          "internalType": "address[]",
          "name": "royaltyRecipients",
          "type": "address[]"
        },
        {
          "internalType": "uint256[]",
          "name": "royaltyPercents",
          "type": "uint256[]"
        }
      ],
      "name": "issueTokenBatch",
      "outputs": [
        {
          "internalType": "uint256[]",
          "name": "",
          "type": "uint256[]"
        }
      ],
      "stateMutability": "nonpayable",
      "type": "function"
    },
    {
      "inputs": [
        {
          "internalType": "string",
          "name": "_baseURI",
          "type": "string"
        }
      ],
      "name": "setBaseURI",
      "outputs": [],
      "stateMutability": "nonpayable",
      "type": "function"
    },
    {
      "inputs": [
        {
          "internalType": "uint256",
          "name": "tokenId",
          "type": "uint256"
        }
      ],
      "name": "uri",
      "outputs": [
        {
          "internalType": "string",
          "name": "",
          "type": "string"
        }
      ],
      "stateMutability": "view",
      "type": "function",
      "constant": true
    },
    {
      "inputs": [
        {
          "internalType": "address",
          "name": "_trustedForwarder",
          "type": "address"
        }
      ],
      "name": "setTrustedForwarder",
      "outputs": [],
      "stateMutability": "nonpayable",
      "type": "function"
    }
  ],
  "bytecode": "0x6080604052604051806060016040528060228152602001620058ad6022913960099080519060200190620000359291906200022c565b503480156200004357600080fd5b506040518060200160405280600081525062000065816200008c60201b60201c565b50620000866200007a620000a860201b60201c565b620000c460201b60201c565b62000341565b8060029080519060200190620000a49291906200022c565b5050565b6000620000bf6200018a60201b62001bc91760201c565b905090565b6000600460009054906101000a900473ffffffffffffffffffffffffffffffffffffffff16905081600460006101000a81548173ffffffffffffffffffffffffffffffffffffffff021916908373ffffffffffffffffffffffffffffffffffffffff1602179055508173ffffffffffffffffffffffffffffffffffffffff168173ffffffffffffffffffffffffffffffffffffffff167f8be0079c531659141344cd1fd0a4f28419497f9722a3daafe3b4186f6b6457e060405160405180910390a35050565b60006018600036905010158015620001af5750620001ae33620001d260201b60201c565b5b15620001c557601436033560601c9050620001ce565b339050620001cf565b5b90565b6000600760019054906101000a900473ffffffffffffffffffffffffffffffffffffffff1673ffffffffffffffffffffffffffffffffffffffff168273ffffffffffffffffffffffffffffffffffffffff16149050919050565b8280546200023a906200030b565b90600052602060002090601f0160209004810192826200025e5760008555620002aa565b82601f106200027957805160ff1916838001178555620002aa565b82800160010185558215620002aa579182015b82811115620002a95782518255916020019190600101906200028c565b5b509050620002b99190620002bd565b5090565b5b80821115620002d8576000816000905550600101620002be565b5090565b7f4e487b7100000000000000000000000000000000000000000000000000000000600052602260045260246000fd5b600060028204905060018216806200032457607f821691505b602082108114156200033b576200033a620002dc565b5b50919050565b61555c80620003516000396000f3fe608060405234801561001057600080fd5b50600436106101c35760003560e01c80636b20c454116100f9578063c830723811610097578063e985e9c511610071578063e985e9c514610527578063f242432a14610557578063f2fde38b14610573578063f5298aca1461058f576101c3565b8063c8307238146104d3578063cf456ae7146104ef578063da7422281461050b576101c3565b80637da0a877116100d35780637da0a8771461044b5780638da5cb5b14610469578063a22cb46514610487578063aa271e1a146104a3576101c3565b80636b20c454146104075780636c0360eb14610423578063715018a614610441576101c3565b80634b0bddd21161016657806355135f901161014057806355135f901461035b57806355f804b31461038b578063572b6c05146103a757806366250b43146103d7576101c3565b80634b0bddd2146102f15780634e1273f41461030d57806353ac010a1461033d576101c3565b806324d7806c116101a257806324d7806c14610258578063254a4737146102885780632a55205a146102a45780632eb2c2d6146102d5576101c3565b8062fdd58e146101c857806301ffc9a7146101f85780630e89341c14610228575b600080fd5b6101e260048036038101906101dd91906134c1565b6105ab565b6040516101ef9190613510565b60405180910390f35b610212600480360381019061020d9190613583565b610674565b60405161021f91906135cb565b60405180910390f35b610242600480360381019061023d91906135e6565b6106ee565b60405161024f91906136ac565b60405180910390f35b610272600480360381019061026d91906136ce565b61072c565b60405161027f91906135cb565b60405180910390f35b6102a2600480360381019061029d9190613727565b610782565b005b6102be60048036038101906102b99190613754565b6108b0565b6040516102cc9291906137a3565b60405180910390f35b6102ef60048036038101906102ea91906139c9565b610963565b005b61030b60048036038101906103069190613a98565b610a04565b005b61032760048036038101906103229190613b9b565b610b84565b6040516103349190613cd1565b60405180910390f35b610345610c9d565b60405161035291906135cb565b60405180910390f35b61037560048036038101906103709190613e75565b610cb0565b6040516103829190613cd1565b60405180910390f35b6103a560048036038101906103a09190613fe9565b610fbf565b005b6103c160048036038101906103bc91906136ce565b611051565b6040516103ce91906135cb565b60405180910390f35b6103f160048036038101906103ec9190614036565b6110ab565b6040516103fe9190613510565b60405180910390f35b610421600480360381019061041c91906140fb565b611265565b005b61042b611302565b60405161043891906136ac565b60405180910390f35b610449611390565b005b610453611418565b6040516104609190614186565b60405180910390f35b61047161143e565b60405161047e9190614186565b60405180910390f35b6104a1600480360381019061049c9190613a98565b611468565b005b6104bd60048036038101906104b891906136ce565b61147e565b6040516104ca91906135cb565b60405180910390f35b6104ed60048036038101906104e891906141f7565b6114d4565b005b61050960048036038101906105049190613a98565b611609565b005b610525600480360381019061052091906136ce565b6117e4565b005b610541600480360381019061053c9190614257565b6118ff565b60405161054e91906135cb565b60405180910390f35b610571600480360381019061056c9190614297565b611993565b005b61058d600480360381019061058891906136ce565b611a34565b005b6105a960048036038101906105a4919061432e565b611b2c565b005b60008073ffffffffffffffffffffffffffffffffffffffff168373ffffffffffffffffffffffffffffffffffffffff16141561061c576040517f08c379a0000000000000000000000000000000000000000000000000000000008152600401610613906143f3565b60405180910390fd5b60008083815260200190815260200160002060008473ffffffffffffffffffffffffffffffffffffffff1673ffffffffffffffffffffffffffffffffffffffff16815260200190815260200160002054905092915050565b60007f2a55205a000000000000000000000000000000000000000000000000000000007bffffffffffffffffffffffffffffffffffffffffffffffffffffffff1916827bffffffffffffffffffffffffffffffffffffffffffffffffffffffff191614806106e757506106e682611c05565b5b9050919050565b60606009600a6000848152602001908152602001600020604051602001610716929190614513565b6040516020818303038152906040529050919050565b6000600560008373ffffffffffffffffffffffffffffffffffffffff1673ffffffffffffffffffffffffffffffffffffffff16815260200190815260200160002060009054906101000a900460ff169050919050565b6005600061078e611ce7565b73ffffffffffffffffffffffffffffffffffffffff1673ffffffffffffffffffffffffffffffffffffffff16815260200190815260200160002060009054906101000a900460ff168061081a57506107e461143e565b73ffffffffffffffffffffffffffffffffffffffff16610802611ce7565b73ffffffffffffffffffffffffffffffffffffffff16145b610859576040517f08c379a0000000000000000000000000000000000000000000000000000000008152600401610850906145a9565b60405180910390fd5b80600760006101000a81548160ff0219169083151502179055507f5c147e1dbc8d82d17119387a31999e5d3b6fcaa2518f29142f180a954ea818846000826040516108a5929190614615565b60405180910390a150565b6000806000600360008681526020019081526020016000206040518060400160405290816000820160009054906101000a900473ffffffffffffffffffffffffffffffffffffffff1673ffffffffffffffffffffffffffffffffffffffff1673ffffffffffffffffffffffffffffffffffffffff1681526020016001820154815250509050806000015161271082602001518661094d9190614680565b6109579190614709565b92509250509250929050565b61096b611ce7565b73ffffffffffffffffffffffffffffffffffffffff168573ffffffffffffffffffffffffffffffffffffffff1614806109b157506109b0856109ab611ce7565b6118ff565b5b6109f0576040517f08c379a00000000000000000000000000000000000000000000000000000000081526004016109e7906147ac565b60405180910390fd5b6109fd8585858585611cf6565b5050505050565b610a0c611ce7565b73ffffffffffffffffffffffffffffffffffffffff16610a2a61143e565b73ffffffffffffffffffffffffffffffffffffffff1614610a80576040517f08c379a0000000000000000000000000000000000000000000000000000000008152600401610a7790614818565b60405180910390fd5b600073ffffffffffffffffffffffffffffffffffffffff168273ffffffffffffffffffffffffffffffffffffffff161415610af0576040517f08c379a0000000000000000000000000000000000000000000000000000000008152600401610ae790614884565b60405180910390fd5b80600560008473ffffffffffffffffffffffffffffffffffffffff1673ffffffffffffffffffffffffffffffffffffffff16815260200190815260200160002060006101000a81548160ff0219169083151502179055507f5c147e1dbc8d82d17119387a31999e5d3b6fcaa2518f29142f180a954ea818848282604051610b789291906148f0565b60405180910390a15050565b60608151835114610bca576040517f08c379a0000000000000000000000000000000000000000000000000000000008152600401610bc19061499e565b60405180910390fd5b6000835167ffffffffffffffff811115610be757610be66137d1565b5b604051908082528060200260200182016040528015610c155781602001602082028036833780820191505090505b50905060005b8451811015610c9257610c62858281518110610c3a57610c396149be565b5b6020026020010151858381518110610c5557610c546149be565b5b60200260200101516105ab565b828281518110610c7557610c746149be565b5b60200260200101818152505080610c8b906149ed565b9050610c1b565b508091505092915050565b600760009054906101000a900460ff1681565b6060600760009054906101000a900460ff1680610d1d575060066000610cd4611ce7565b73ffffffffffffffffffffffffffffffffffffffff1673ffffffffffffffffffffffffffffffffffffffff16815260200190815260200160002060009054906101000a900460ff165b80610d78575060056000610d2f611ce7565b73ffffffffffffffffffffffffffffffffffffffff1673ffffffffffffffffffffffffffffffffffffffff16815260200190815260200160002060009054906101000a900460ff165b80610dbc5750610d8661143e565b73ffffffffffffffffffffffffffffffffffffffff16610da4611ce7565b73ffffffffffffffffffffffffffffffffffffffff16145b610dfb576040517f08c379a0000000000000000000000000000000000000000000000000000000008152600401610df290614aa8565b60405180910390fd5b84518651148015610e0d575081518351145b8015610e1a575082518651145b610e59576040517f08c379a0000000000000000000000000000000000000000000000000000000008152600401610e5090614b14565b60405180910390fd5b6000865167ffffffffffffffff811115610e7657610e756137d1565b5b604051908082528060200260200182016040528015610ea45781602001602082028036833780820191505090505b50905060005b8751811015610fa457610ebd600861200a565b6000610ec96008612020565b9050878281518110610ede57610edd6149be565b5b6020026020010151600a60008381526020019081526020016000209080519060200190610f0c9291906132f0565b5080838381518110610f2157610f206149be565b5b6020026020010181815250506000858381518110610f4257610f416149be565b5b60200260200101511115610f9057610f8f81878481518110610f6757610f666149be565b5b6020026020010151878581518110610f8257610f816149be565b5b602002602001015161202e565b5b508080610f9c906149ed565b915050610eaa565b50610fb18882898861210a565b809150509695505050505050565b610fc7611ce7565b73ffffffffffffffffffffffffffffffffffffffff16610fe561143e565b73ffffffffffffffffffffffffffffffffffffffff161461103b576040517f08c379a000000000000000000000000000000000000000000000000000000000815260040161103290614818565b60405180910390fd5b81816009919061104c929190613376565b505050565b6000600760019054906101000a900473ffffffffffffffffffffffffffffffffffffffff1673ffffffffffffffffffffffffffffffffffffffff168273ffffffffffffffffffffffffffffffffffffffff16149050919050565b6000600760009054906101000a900460ff16806111185750600660006110cf611ce7565b73ffffffffffffffffffffffffffffffffffffffff1673ffffffffffffffffffffffffffffffffffffffff16815260200190815260200160002060009054906101000a900460ff165b8061117357506005600061112a611ce7565b73ffffffffffffffffffffffffffffffffffffffff1673ffffffffffffffffffffffffffffffffffffffff16815260200190815260200160002060009054906101000a900460ff165b806111b7575061118161143e565b73ffffffffffffffffffffffffffffffffffffffff1661119f611ce7565b73ffffffffffffffffffffffffffffffffffffffff16145b6111f6576040517f08c379a00000000000000000000000000000000000000000000000000000000081526004016111ed90614aa8565b60405180910390fd5b611200600861200a565b600061120c6008612020565b905085600a600083815260200190815260200160002090805190602001906112359291906132f0565b5061124288828988612328565b60008311156112575761125681858561202e565b5b809150509695505050505050565b61126d611ce7565b73ffffffffffffffffffffffffffffffffffffffff168373ffffffffffffffffffffffffffffffffffffffff1614806112b357506112b2836112ad611ce7565b6118ff565b5b6112f2576040517f08c379a00000000000000000000000000000000000000000000000000000000081526004016112e990614ba6565b60405180910390fd5b6112fd8383836124be565b505050565b6009805461130f90614442565b80601f016020809104026020016040519081016040528092919081815260200182805461133b90614442565b80156113885780601f1061135d57610100808354040283529160200191611388565b820191906000526020600020905b81548152906001019060200180831161136b57829003601f168201915b505050505081565b611398611ce7565b73ffffffffffffffffffffffffffffffffffffffff166113b661143e565b73ffffffffffffffffffffffffffffffffffffffff161461140c576040517f08c379a000000000000000000000000000000000000000000000000000000000815260040161140390614818565b60405180910390fd5b611416600061276f565b565b600760019054906101000a900473ffffffffffffffffffffffffffffffffffffffff1681565b6000600460009054906101000a900473ffffffffffffffffffffffffffffffffffffffff16905090565b61147a611473611ce7565b8383612835565b5050565b6000600660008373ffffffffffffffffffffffffffffffffffffffff1673ffffffffffffffffffffffffffffffffffffffff16815260200190815260200160002060009054906101000a900460ff169050919050565b600560006114e0611ce7565b73ffffffffffffffffffffffffffffffffffffffff1673ffffffffffffffffffffffffffffffffffffffff16815260200190815260200160002060009054906101000a900460ff168061156c575061153661143e565b73ffffffffffffffffffffffffffffffffffffffff16611554611ce7565b73ffffffffffffffffffffffffffffffffffffffff16145b6115ab576040517f08c379a00000000000000000000000000000000000000000000000000000000081526004016115a2906145a9565b60405180910390fd5b60005b838390508110156116035760008484838181106115ce576115cd6149be565b5b90506020020160208101906115e391906136ce565b90506115ef8184611609565b5080806115fb906149ed565b9150506115ae565b50505050565b60056000611615611ce7565b73ffffffffffffffffffffffffffffffffffffffff1673ffffffffffffffffffffffffffffffffffffffff16815260200190815260200160002060009054906101000a900460ff16806116a1575061166b61143e565b73ffffffffffffffffffffffffffffffffffffffff16611689611ce7565b73ffffffffffffffffffffffffffffffffffffffff16145b6116e0576040517f08c379a00000000000000000000000000000000000000000000000000000000081526004016116d7906145a9565b60405180910390fd5b600073ffffffffffffffffffffffffffffffffffffffff168273ffffffffffffffffffffffffffffffffffffffff161415611750576040517f08c379a000000000000000000000000000000000000000000000000000000000815260040161174790614c12565b60405180910390fd5b80600660008473ffffffffffffffffffffffffffffffffffffffff1673ffffffffffffffffffffffffffffffffffffffff16815260200190815260200160002060006101000a81548160ff0219169083151502179055507f5c147e1dbc8d82d17119387a31999e5d3b6fcaa2518f29142f180a954ea8188482826040516117d8929190614615565b60405180910390a15050565b600560006117f0611ce7565b73ffffffffffffffffffffffffffffffffffffffff1673ffffffffffffffffffffffffffffffffffffffff16815260200190815260200160002060009054906101000a900460ff168061187c575061184661143e565b73ffffffffffffffffffffffffffffffffffffffff16611864611ce7565b73ffffffffffffffffffffffffffffffffffffffff16145b6118bb576040517f08c379a00000000000000000000000000000000000000000000000000000000081526004016118b2906145a9565b60405180910390fd5b80600760016101000a81548173ffffffffffffffffffffffffffffffffffffffff021916908373ffffffffffffffffffffffffffffffffffffffff16021790555050565b6000600160008473ffffffffffffffffffffffffffffffffffffffff1673ffffffffffffffffffffffffffffffffffffffff16815260200190815260200160002060008373ffffffffffffffffffffffffffffffffffffffff1673ffffffffffffffffffffffffffffffffffffffff16815260200190815260200160002060009054906101000a900460ff16905092915050565b61199b611ce7565b73ffffffffffffffffffffffffffffffffffffffff168573ffffffffffffffffffffffffffffffffffffffff1614806119e157506119e0856119db611ce7565b6118ff565b5b611a20576040517f08c379a0000000000000000000000000000000000000000000000000000000008152600401611a1790614ba6565b60405180910390fd5b611a2d85858585856129a2565b5050505050565b611a3c611ce7565b73ffffffffffffffffffffffffffffffffffffffff16611a5a61143e565b73ffffffffffffffffffffffffffffffffffffffff1614611ab0576040517f08c379a0000000000000000000000000000000000000000000000000000000008152600401611aa790614818565b60405180910390fd5b600073ffffffffffffffffffffffffffffffffffffffff168173ffffffffffffffffffffffffffffffffffffffff161415611b20576040517f08c379a0000000000000000000000000000000000000000000000000000000008152600401611b1790614ca4565b60405180910390fd5b611b298161276f565b50565b611b34611ce7565b73ffffffffffffffffffffffffffffffffffffffff168373ffffffffffffffffffffffffffffffffffffffff161480611b7a5750611b7983611b74611ce7565b6118ff565b5b611bb9576040517f08c379a0000000000000000000000000000000000000000000000000000000008152600401611bb090614ba6565b60405180910390fd5b611bc4838383612c24565b505050565b60006018600036905010158015611be55750611be433611051565b5b15611bf957601436033560601c9050611c01565b339050611c02565b5b90565b60007fd9b67a26000000000000000000000000000000000000000000000000000000007bffffffffffffffffffffffffffffffffffffffffffffffffffffffff1916827bffffffffffffffffffffffffffffffffffffffffffffffffffffffff19161480611cd057507f0e89341c000000000000000000000000000000000000000000000000000000007bffffffffffffffffffffffffffffffffffffffffffffffffffffffff1916827bffffffffffffffffffffffffffffffffffffffffffffffffffffffff1916145b80611ce05750611cdf82612e41565b5b9050919050565b6000611cf1611bc9565b905090565b8151835114611d3a576040517f08c379a0000000000000000000000000000000000000000000000000000000008152600401611d3190614d36565b60405180910390fd5b600073ffffffffffffffffffffffffffffffffffffffff168473ffffffffffffffffffffffffffffffffffffffff161415611daa576040517f08c379a0000000000000000000000000000000000000000000000000000000008152600401611da190614dc8565b60405180910390fd5b6000611db4611ce7565b9050611dc4818787878787612eab565b60005b8451811015611f75576000858281518110611de557611de46149be565b5b602002602001015190506000858381518110611e0457611e036149be565b5b60200260200101519050600080600084815260200190815260200160002060008b73ffffffffffffffffffffffffffffffffffffffff1673ffffffffffffffffffffffffffffffffffffffff16815260200190815260200160002054905081811015611ea5576040517f08c379a0000000000000000000000000000000000000000000000000000000008152600401611e9c90614e5a565b60405180910390fd5b81810360008085815260200190815260200160002060008c73ffffffffffffffffffffffffffffffffffffffff1673ffffffffffffffffffffffffffffffffffffffff168152602001908152602001600020819055508160008085815260200190815260200160002060008b73ffffffffffffffffffffffffffffffffffffffff1673ffffffffffffffffffffffffffffffffffffffff1681526020019081526020016000206000828254611f5a9190614e7a565b9250508190555050505080611f6e906149ed565b9050611dc7565b508473ffffffffffffffffffffffffffffffffffffffff168673ffffffffffffffffffffffffffffffffffffffff168273ffffffffffffffffffffffffffffffffffffffff167f4a39dc06d4c0dbc64b70af90fd698a233a518aa5d07e595d983b8c0526c8f7fb8787604051611fec929190614ed0565b60405180910390a4612002818787878787612eb3565b505050505050565b6001816000016000828254019250508190555050565b600081600001549050919050565b612710811115612073576040517f08c379a000000000000000000000000000000000000000000000000000000000815260040161206a90614f53565b60405180910390fd5b60405180604001604052808373ffffffffffffffffffffffffffffffffffffffff168152602001828152506003600085815260200190815260200160002060008201518160000160006101000a81548173ffffffffffffffffffffffffffffffffffffffff021916908373ffffffffffffffffffffffffffffffffffffffff16021790555060208201518160010155905050505050565b600073ffffffffffffffffffffffffffffffffffffffff168473ffffffffffffffffffffffffffffffffffffffff16141561217a576040517f08c379a000000000000000000000000000000000000000000000000000000000815260040161217190614fe5565b60405180910390fd5b81518351146121be576040517f08c379a00000000000000000000000000000000000000000000000000000000081526004016121b590614d36565b60405180910390fd5b60006121c8611ce7565b90506121d981600087878787612eab565b60005b8451811015612292578381815181106121f8576121f76149be565b5b6020026020010151600080878481518110612216576122156149be565b5b6020026020010151815260200190815260200160002060008873ffffffffffffffffffffffffffffffffffffffff1673ffffffffffffffffffffffffffffffffffffffff16815260200190815260200160002060008282546122789190614e7a565b92505081905550808061228a906149ed565b9150506121dc565b508473ffffffffffffffffffffffffffffffffffffffff16600073ffffffffffffffffffffffffffffffffffffffff168273ffffffffffffffffffffffffffffffffffffffff167f4a39dc06d4c0dbc64b70af90fd698a233a518aa5d07e595d983b8c0526c8f7fb878760405161230a929190614ed0565b60405180910390a461232181600087878787612eb3565b5050505050565b600073ffffffffffffffffffffffffffffffffffffffff168473ffffffffffffffffffffffffffffffffffffffff161415612398576040517f08c379a000000000000000000000000000000000000000000000000000000000815260040161238f90614fe5565b60405180910390fd5b60006123a2611ce7565b90506123c3816000876123b48861308b565b6123bd8861308b565b87612eab565b8260008086815260200190815260200160002060008773ffffffffffffffffffffffffffffffffffffffff1673ffffffffffffffffffffffffffffffffffffffff16815260200190815260200160002060008282546124229190614e7a565b925050819055508473ffffffffffffffffffffffffffffffffffffffff16600073ffffffffffffffffffffffffffffffffffffffff168273ffffffffffffffffffffffffffffffffffffffff167fc3d58168c5ae7397731d063d5bbf3d657854427343f4c083240f7aacaa2d0f6287876040516124a0929190615005565b60405180910390a46124b781600087878787613105565b5050505050565b600073ffffffffffffffffffffffffffffffffffffffff168373ffffffffffffffffffffffffffffffffffffffff16141561252e576040517f08c379a0000000000000000000000000000000000000000000000000000000008152600401612525906150a0565b60405180910390fd5b8051825114612572576040517f08c379a000000000000000000000000000000000000000000000000000000000815260040161256990614d36565b60405180910390fd5b600061257c611ce7565b905061259c81856000868660405180602001604052806000815250612eab565b60005b83518110156126e95760008482815181106125bd576125bc6149be565b5b6020026020010151905060008483815181106125dc576125db6149be565b5b60200260200101519050600080600084815260200190815260200160002060008973ffffffffffffffffffffffffffffffffffffffff1673ffffffffffffffffffffffffffffffffffffffff1681526020019081526020016000205490508181101561267d576040517f08c379a000000000000000000000000000000000000000000000000000000000815260040161267490615132565b60405180910390fd5b81810360008085815260200190815260200160002060008a73ffffffffffffffffffffffffffffffffffffffff1673ffffffffffffffffffffffffffffffffffffffff1681526020019081526020016000208190555050505080806126e1906149ed565b91505061259f565b50600073ffffffffffffffffffffffffffffffffffffffff168473ffffffffffffffffffffffffffffffffffffffff168273ffffffffffffffffffffffffffffffffffffffff167f4a39dc06d4c0dbc64b70af90fd698a233a518aa5d07e595d983b8c0526c8f7fb8686604051612761929190614ed0565b60405180910390a450505050565b6000600460009054906101000a900473ffffffffffffffffffffffffffffffffffffffff16905081600460006101000a81548173ffffffffffffffffffffffffffffffffffffffff021916908373ffffffffffffffffffffffffffffffffffffffff1602179055508173ffffffffffffffffffffffffffffffffffffffff168173ffffffffffffffffffffffffffffffffffffffff167f8be0079c531659141344cd1fd0a4f28419497f9722a3daafe3b4186f6b6457e060405160405180910390a35050565b8173ffffffffffffffffffffffffffffffffffffffff168373ffffffffffffffffffffffffffffffffffffffff1614156128a4576040517f08c379a000000000000000000000000000000000000000000000000000000000815260040161289b906151c4565b60405180910390fd5b80600160008573ffffffffffffffffffffffffffffffffffffffff1673ffffffffffffffffffffffffffffffffffffffff16815260200190815260200160002060008473ffffffffffffffffffffffffffffffffffffffff1673ffffffffffffffffffffffffffffffffffffffff16815260200190815260200160002060006101000a81548160ff0219169083151502179055508173ffffffffffffffffffffffffffffffffffffffff168373ffffffffffffffffffffffffffffffffffffffff167f17307eab39ab6107e8899845ad3d59bd9653f200f220920489ca2b5937696c318360405161299591906135cb565b60405180910390a3505050565b600073ffffffffffffffffffffffffffffffffffffffff168473ffffffffffffffffffffffffffffffffffffffff161415612a12576040517f08c379a0000000000000000000000000000000000000000000000000000000008152600401612a0990614dc8565b60405180910390fd5b6000612a1c611ce7565b9050612a3c818787612a2d8861308b565b612a368861308b565b87612eab565b600080600086815260200190815260200160002060008873ffffffffffffffffffffffffffffffffffffffff1673ffffffffffffffffffffffffffffffffffffffff16815260200190815260200160002054905083811015612ad3576040517f08c379a0000000000000000000000000000000000000000000000000000000008152600401612aca90614e5a565b60405180910390fd5b83810360008087815260200190815260200160002060008973ffffffffffffffffffffffffffffffffffffffff1673ffffffffffffffffffffffffffffffffffffffff168152602001908152602001600020819055508360008087815260200190815260200160002060008873ffffffffffffffffffffffffffffffffffffffff1673ffffffffffffffffffffffffffffffffffffffff1681526020019081526020016000206000828254612b889190614e7a565b925050819055508573ffffffffffffffffffffffffffffffffffffffff168773ffffffffffffffffffffffffffffffffffffffff168373ffffffffffffffffffffffffffffffffffffffff167fc3d58168c5ae7397731d063d5bbf3d657854427343f4c083240f7aacaa2d0f628888604051612c05929190615005565b60405180910390a4612c1b828888888888613105565b50505050505050565b600073ffffffffffffffffffffffffffffffffffffffff168373ffffffffffffffffffffffffffffffffffffffff161415612c94576040517f08c379a0000000000000000000000000000000000000000000000000000000008152600401612c8b906150a0565b60405180910390fd5b6000612c9e611ce7565b9050612cce81856000612cb08761308b565b612cb98761308b565b60405180602001604052806000815250612eab565b600080600085815260200190815260200160002060008673ffffffffffffffffffffffffffffffffffffffff1673ffffffffffffffffffffffffffffffffffffffff16815260200190815260200160002054905082811015612d65576040517f08c379a0000000000000000000000000000000000000000000000000000000008152600401612d5c90615132565b60405180910390fd5b82810360008086815260200190815260200160002060008773ffffffffffffffffffffffffffffffffffffffff1673ffffffffffffffffffffffffffffffffffffffff16815260200190815260200160002081905550600073ffffffffffffffffffffffffffffffffffffffff168573ffffffffffffffffffffffffffffffffffffffff168373ffffffffffffffffffffffffffffffffffffffff167fc3d58168c5ae7397731d063d5bbf3d657854427343f4c083240f7aacaa2d0f628787604051612e32929190615005565b60405180910390a45050505050565b60007f01ffc9a7000000000000000000000000000000000000000000000000000000007bffffffffffffffffffffffffffffffffffffffffffffffffffffffff1916827bffffffffffffffffffffffffffffffffffffffffffffffffffffffff1916149050919050565b505050505050565b612ed28473ffffffffffffffffffffffffffffffffffffffff166132dd565b15613083578373ffffffffffffffffffffffffffffffffffffffff1663bc197c8187878686866040518663ffffffff1660e01b8152600401612f18959493929190615239565b6020604051808303816000875af1925050508015612f5457506040513d601f19601f82011682018060405250810190612f5191906152b6565b60015b612ffa57612f606152f0565b806308c379a01415612fbd5750612f75615312565b80612f805750612fbf565b806040517f08c379a0000000000000000000000000000000000000000000000000000000008152600401612fb491906136ac565b60405180910390fd5b505b6040517f08c379a0000000000000000000000000000000000000000000000000000000008152600401612ff19061541a565b60405180910390fd5b63bc197c8160e01b7bffffffffffffffffffffffffffffffffffffffffffffffffffffffff1916817bffffffffffffffffffffffffffffffffffffffffffffffffffffffff191614613081576040517f08c379a0000000000000000000000000000000000000000000000000000000008152600401613078906154ac565b60405180910390fd5b505b505050505050565b60606000600167ffffffffffffffff8111156130aa576130a96137d1565b5b6040519080825280602002602001820160405280156130d85781602001602082028036833780820191505090505b50905082816000815181106130f0576130ef6149be565b5b60200260200101818152505080915050919050565b6131248473ffffffffffffffffffffffffffffffffffffffff166132dd565b156132d5578373ffffffffffffffffffffffffffffffffffffffff1663f23a6e6187878686866040518663ffffffff1660e01b815260040161316a9594939291906154cc565b6020604051808303816000875af19250505080156131a657506040513d601f19601f820116820180604052508101906131a391906152b6565b60015b61324c576131b26152f0565b806308c379a0141561320f57506131c7615312565b806131d25750613211565b806040517f08c379a000000000000000000000000000000000000000000000000000000000815260040161320691906136ac565b60405180910390fd5b505b6040517f08c379a00000000000000000000000000000000000000000000000000000000081526004016132439061541a565b60405180910390fd5b63f23a6e6160e01b7bffffffffffffffffffffffffffffffffffffffffffffffffffffffff1916817bffffffffffffffffffffffffffffffffffffffffffffffffffffffff1916146132d3576040517f08c379a00000000000000000000000000000000000000000000000000000000081526004016132ca906154ac565b60405180910390fd5b505b505050505050565b600080823b905060008111915050919050565b8280546132fc90614442565b90600052602060002090601f01602090048101928261331e5760008555613365565b82601f1061333757805160ff1916838001178555613365565b82800160010185558215613365579182015b82811115613364578251825591602001919060010190613349565b5b50905061337291906133fc565b5090565b82805461338290614442565b90600052602060002090601f0160209004810192826133a457600085556133eb565b82601f106133bd57803560ff19168380011785556133eb565b828001600101855582156133eb579182015b828111156133ea5782358255916020019190600101906133cf565b5b5090506133f891906133fc565b5090565b5b808211156134155760008160009055506001016133fd565b5090565b6000604051905090565b600080fd5b600080fd5b600073ffffffffffffffffffffffffffffffffffffffff82169050919050565b60006134588261342d565b9050919050565b6134688161344d565b811461347357600080fd5b50565b6000813590506134858161345f565b92915050565b6000819050919050565b61349e8161348b565b81146134a957600080fd5b50565b6000813590506134bb81613495565b92915050565b600080604083850312156134d8576134d7613423565b5b60006134e685828601613476565b92505060206134f7858286016134ac565b9150509250929050565b61350a8161348b565b82525050565b60006020820190506135256000830184613501565b92915050565b60007fffffffff0000000000000000000000000000000000000000000000000000000082169050919050565b6135608161352b565b811461356b57600080fd5b50565b60008135905061357d81613557565b92915050565b60006020828403121561359957613598613423565b5b60006135a78482850161356e565b91505092915050565b60008115159050919050565b6135c5816135b0565b82525050565b60006020820190506135e060008301846135bc565b92915050565b6000602082840312156135fc576135fb613423565b5b600061360a848285016134ac565b91505092915050565b600081519050919050565b600082825260208201905092915050565b60005b8381101561364d578082015181840152602081019050613632565b8381111561365c576000848401525b50505050565b6000601f19601f8301169050919050565b600061367e82613613565b613688818561361e565b935061369881856020860161362f565b6136a181613662565b840191505092915050565b600060208201905081810360008301526136c68184613673565b905092915050565b6000602082840312156136e4576136e3613423565b5b60006136f284828501613476565b91505092915050565b613704816135b0565b811461370f57600080fd5b50565b600081359050613721816136fb565b92915050565b60006020828403121561373d5761373c613423565b5b600061374b84828501613712565b91505092915050565b6000806040838503121561376b5761376a613423565b5b6000613779858286016134ac565b925050602061378a858286016134ac565b9150509250929050565b61379d8161344d565b82525050565b60006040820190506137b86000830185613794565b6137c56020830184613501565b9392505050565b600080fd5b7f4e487b7100000000000000000000000000000000000000000000000000000000600052604160045260246000fd5b61380982613662565b810181811067ffffffffffffffff82111715613828576138276137d1565b5b80604052505050565b600061383b613419565b90506138478282613800565b919050565b600067ffffffffffffffff821115613867576138666137d1565b5b602082029050602081019050919050565b600080fd5b600061389061388b8461384c565b613831565b905080838252602082019050602084028301858111156138b3576138b2613878565b5b835b818110156138dc57806138c888826134ac565b8452602084019350506020810190506138b5565b5050509392505050565b600082601f8301126138fb576138fa6137cc565b5b813561390b84826020860161387d565b91505092915050565b600080fd5b600067ffffffffffffffff821115613934576139336137d1565b5b61393d82613662565b9050602081019050919050565b82818337600083830152505050565b600061396c61396784613919565b613831565b90508281526020810184848401111561398857613987613914565b5b61399384828561394a565b509392505050565b600082601f8301126139b0576139af6137cc565b5b81356139c0848260208601613959565b91505092915050565b600080600080600060a086880312156139e5576139e4613423565b5b60006139f388828901613476565b9550506020613a0488828901613476565b945050604086013567ffffffffffffffff811115613a2557613a24613428565b5b613a31888289016138e6565b935050606086013567ffffffffffffffff811115613a5257613a51613428565b5b613a5e888289016138e6565b925050608086013567ffffffffffffffff811115613a7f57613a7e613428565b5b613a8b8882890161399b565b9150509295509295909350565b60008060408385031215613aaf57613aae613423565b5b6000613abd85828601613476565b9250506020613ace85828601613712565b9150509250929050565b600067ffffffffffffffff821115613af357613af26137d1565b5b602082029050602081019050919050565b6000613b17613b1284613ad8565b613831565b90508083825260208201905060208402830185811115613b3a57613b39613878565b5b835b81811015613b635780613b4f8882613476565b845260208401935050602081019050613b3c565b5050509392505050565b600082601f830112613b8257613b816137cc565b5b8135613b92848260208601613b04565b91505092915050565b60008060408385031215613bb257613bb1613423565b5b600083013567ffffffffffffffff811115613bd057613bcf613428565b5b613bdc85828601613b6d565b925050602083013567ffffffffffffffff811115613bfd57613bfc613428565b5b613c09858286016138e6565b9150509250929050565b600081519050919050565b600082825260208201905092915050565b6000819050602082019050919050565b613c488161348b565b82525050565b6000613c5a8383613c3f565b60208301905092915050565b6000602082019050919050565b6000613c7e82613c13565b613c888185613c1e565b9350613c9383613c2f565b8060005b83811015613cc4578151613cab8882613c4e565b9750613cb683613c66565b925050600181019050613c97565b5085935050505092915050565b60006020820190508181036000830152613ceb8184613c73565b905092915050565b600067ffffffffffffffff821115613d0e57613d0d6137d1565b5b602082029050602081019050919050565b600067ffffffffffffffff821115613d3a57613d396137d1565b5b613d4382613662565b9050602081019050919050565b6000613d63613d5e84613d1f565b613831565b905082815260208101848484011115613d7f57613d7e613914565b5b613d8a84828561394a565b509392505050565b600082601f830112613da757613da66137cc565b5b8135613db7848260208601613d50565b91505092915050565b6000613dd3613dce84613cf3565b613831565b90508083825260208201905060208402830185811115613df657613df5613878565b5b835b81811015613e3d57803567ffffffffffffffff811115613e1b57613e1a6137cc565b5b808601613e288982613d92565b85526020850194505050602081019050613df8565b5050509392505050565b600082601f830112613e5c57613e5b6137cc565b5b8135613e6c848260208601613dc0565b91505092915050565b60008060008060008060c08789031215613e9257613e91613423565b5b6000613ea089828a01613476565b965050602087013567ffffffffffffffff811115613ec157613ec0613428565b5b613ecd89828a016138e6565b955050604087013567ffffffffffffffff811115613eee57613eed613428565b5b613efa89828a01613e47565b945050606087013567ffffffffffffffff811115613f1b57613f1a613428565b5b613f2789828a0161399b565b935050608087013567ffffffffffffffff811115613f4857613f47613428565b5b613f5489828a01613b6d565b92505060a087013567ffffffffffffffff811115613f7557613f74613428565b5b613f8189828a016138e6565b9150509295509295509295565b600080fd5b60008083601f840112613fa957613fa86137cc565b5b8235905067ffffffffffffffff811115613fc657613fc5613f8e565b5b602083019150836001820283011115613fe257613fe1613878565b5b9250929050565b6000806020838503121561400057613fff613423565b5b600083013567ffffffffffffffff81111561401e5761401d613428565b5b61402a85828601613f93565b92509250509250929050565b60008060008060008060c0878903121561405357614052613423565b5b600061406189828a01613476565b965050602061407289828a016134ac565b955050604087013567ffffffffffffffff81111561409357614092613428565b5b61409f89828a01613d92565b945050606087013567ffffffffffffffff8111156140c0576140bf613428565b5b6140cc89828a0161399b565b93505060806140dd89828a01613476565b92505060a06140ee89828a016134ac565b9150509295509295509295565b60008060006060848603121561411457614113613423565b5b600061412286828701613476565b935050602084013567ffffffffffffffff81111561414357614142613428565b5b61414f868287016138e6565b925050604084013567ffffffffffffffff8111156141705761416f613428565b5b61417c868287016138e6565b9150509250925092565b600060208201905061419b6000830184613794565b92915050565b60008083601f8401126141b7576141b66137cc565b5b8235905067ffffffffffffffff8111156141d4576141d3613f8e565b5b6020830191508360208202830111156141f0576141ef613878565b5b9250929050565b6000806000604084860312156142105761420f613423565b5b600084013567ffffffffffffffff81111561422e5761422d613428565b5b61423a868287016141a1565b9350935050602061424d86828701613712565b9150509250925092565b6000806040838503121561426e5761426d613423565b5b600061427c85828601613476565b925050602061428d85828601613476565b9150509250929050565b600080600080600060a086880312156142b3576142b2613423565b5b60006142c188828901613476565b95505060206142d288828901613476565b94505060406142e3888289016134ac565b93505060606142f4888289016134ac565b925050608086013567ffffffffffffffff81111561431557614314613428565b5b6143218882890161399b565b9150509295509295909350565b60008060006060848603121561434757614346613423565b5b600061435586828701613476565b9350506020614366868287016134ac565b9250506040614377868287016134ac565b9150509250925092565b7f455243313135353a2062616c616e636520717565727920666f7220746865207a60008201527f65726f2061646472657373000000000000000000000000000000000000000000602082015250565b60006143dd602b8361361e565b91506143e882614381565b604082019050919050565b6000602082019050818103600083015261440c816143d0565b9050919050565b7f4e487b7100000000000000000000000000000000000000000000000000000000600052602260045260246000fd5b6000600282049050600182168061445a57607f821691505b6020821081141561446e5761446d614413565b5b50919050565b600081905092915050565b60008190508160005260206000209050919050565b600081546144a181614442565b6144ab8186614474565b945060018216600081146144c657600181146144d75761450a565b60ff1983168652818601935061450a565b6144e08561447f565b60005b83811015614502578154818901526001820191506020810190506144e3565b838801955050505b50505092915050565b600061451f8285614494565b915061452b8284614494565b91508190509392505050565b7f41636365737350726f7465637465643a2063616c6c6572206973206e6f74206160008201527f646d696e00000000000000000000000000000000000000000000000000000000602082015250565b600061459360248361361e565b915061459e82614537565b604082019050919050565b600060208201905081810360008301526145c281614586565b9050919050565b7f4d494e5445520000000000000000000000000000000000000000000000000000600082015250565b60006145ff60068361361e565b915061460a826145c9565b602082019050919050565b600060608201905061462a6000830185613794565b818103602083015261463b816145f2565b905061464a60408301846135bc565b9392505050565b7f4e487b7100000000000000000000000000000000000000000000000000000000600052601160045260246000fd5b600061468b8261348b565b91506146968361348b565b9250817fffffffffffffffffffffffffffffffffffffffffffffffffffffffffffffffff04831182151516156146cf576146ce614651565b5b828202905092915050565b7f4e487b7100000000000000000000000000000000000000000000000000000000600052601260045260246000fd5b60006147148261348b565b915061471f8361348b565b92508261472f5761472e6146da565b5b828204905092915050565b7f455243313135353a207472616e736665722063616c6c6572206973206e6f742060008201527f6f776e6572206e6f7220617070726f7665640000000000000000000000000000602082015250565b600061479660328361361e565b91506147a18261473a565b604082019050919050565b600060208201905081810360008301526147c581614789565b9050919050565b7f4f776e61626c653a2063616c6c6572206973206e6f7420746865206f776e6572600082015250565b600061480260208361361e565b915061480d826147cc565b602082019050919050565b60006020820190508181036000830152614831816147f5565b9050919050565b7f496e76616c69642041646d696e20416464726573730000000000000000000000600082015250565b600061486e60158361361e565b915061487982614838565b602082019050919050565b6000602082019050818103600083015261489d81614861565b9050919050565b7f41444d494e000000000000000000000000000000000000000000000000000000600082015250565b60006148da60058361361e565b91506148e5826148a4565b602082019050919050565b60006060820190506149056000830185613794565b8181036020830152614916816148cd565b905061492560408301846135bc565b9392505050565b7f455243313135353a206163636f756e747320616e6420696473206c656e67746860008201527f206d69736d617463680000000000000000000000000000000000000000000000602082015250565b600061498860298361361e565b91506149938261492c565b604082019050919050565b600060208201905081810360008301526149b78161497b565b9050919050565b7f4e487b7100000000000000000000000000000000000000000000000000000000600052603260045260246000fd5b60006149f88261348b565b91507fffffffffffffffffffffffffffffffffffffffffffffffffffffffffffffffff821415614a2b57614a2a614651565b5b600182019050919050565b7f41636365737350726f7465637465643a2063616c6c6572206973206e6f74206d60008201527f696e746572000000000000000000000000000000000000000000000000000000602082015250565b6000614a9260258361361e565b9150614a9d82614a36565b604082019050919050565b60006020820190508181036000830152614ac181614a85565b9050919050565b7f6172726179206c656e677468206d69736d617463680000000000000000000000600082015250565b6000614afe60158361361e565b9150614b0982614ac8565b602082019050919050565b60006020820190508181036000830152614b2d81614af1565b9050919050565b7f455243313135353a2063616c6c6572206973206e6f74206f776e6572206e6f7260008201527f20617070726f7665640000000000000000000000000000000000000000000000602082015250565b6000614b9060298361361e565b9150614b9b82614b34565b604082019050919050565b60006020820190508181036000830152614bbf81614b83565b9050919050565b7f496e76616c6964204d696e746572204164647265737300000000000000000000600082015250565b6000614bfc60168361361e565b9150614c0782614bc6565b602082019050919050565b60006020820190508181036000830152614c2b81614bef565b9050919050565b7f4f776e61626c653a206e6577206f776e657220697320746865207a65726f206160008201527f6464726573730000000000000000000000000000000000000000000000000000602082015250565b6000614c8e60268361361e565b9150614c9982614c32565b604082019050919050565b60006020820190508181036000830152614cbd81614c81565b9050919050565b7f455243313135353a2069647320616e6420616d6f756e7473206c656e6774682060008201527f6d69736d61746368000000000000000000000000000000000000000000000000602082015250565b6000614d2060288361361e565b9150614d2b82614cc4565b604082019050919050565b60006020820190508181036000830152614d4f81614d13565b9050919050565b7f455243313135353a207472616e7366657220746f20746865207a65726f20616460008201527f6472657373000000000000000000000000000000000000000000000000000000602082015250565b6000614db260258361361e565b9150614dbd82614d56565b604082019050919050565b60006020820190508181036000830152614de181614da5565b9050919050565b7f455243313135353a20696e73756666696369656e742062616c616e636520666f60008201527f72207472616e7366657200000000000000000000000000000000000000000000602082015250565b6000614e44602a8361361e565b9150614e4f82614de8565b604082019050919050565b60006020820190508181036000830152614e7381614e37565b9050919050565b6000614e858261348b565b9150614e908361348b565b9250827fffffffffffffffffffffffffffffffffffffffffffffffffffffffffffffffff03821115614ec557614ec4614651565b5b828201905092915050565b60006040820190508181036000830152614eea8185613c73565b90508181036020830152614efe8184613c73565b90509392505050565b7f45524332393831526f79616c746965733a2076616c756520746f6f2068696768600082015250565b6000614f3d60208361361e565b9150614f4882614f07565b602082019050919050565b60006020820190508181036000830152614f6c81614f30565b9050919050565b7f455243313135353a206d696e7420746f20746865207a65726f2061646472657360008201527f7300000000000000000000000000000000000000000000000000000000000000602082015250565b6000614fcf60218361361e565b9150614fda82614f73565b604082019050919050565b60006020820190508181036000830152614ffe81614fc2565b9050919050565b600060408201905061501a6000830185613501565b6150276020830184613501565b9392505050565b7f455243313135353a206275726e2066726f6d20746865207a65726f206164647260008201527f6573730000000000000000000000000000000000000000000000000000000000602082015250565b600061508a60238361361e565b91506150958261502e565b604082019050919050565b600060208201905081810360008301526150b98161507d565b9050919050565b7f455243313135353a206275726e20616d6f756e7420657863656564732062616c60008201527f616e636500000000000000000000000000000000000000000000000000000000602082015250565b600061511c60248361361e565b9150615127826150c0565b604082019050919050565b6000602082019050818103600083015261514b8161510f565b9050919050565b7f455243313135353a2073657474696e6720617070726f76616c2073746174757360008201527f20666f722073656c660000000000000000000000000000000000000000000000602082015250565b60006151ae60298361361e565b91506151b982615152565b604082019050919050565b600060208201905081810360008301526151dd816151a1565b9050919050565b600081519050919050565b600082825260208201905092915050565b600061520b826151e4565b61521581856151ef565b935061522581856020860161362f565b61522e81613662565b840191505092915050565b600060a08201905061524e6000830188613794565b61525b6020830187613794565b818103604083015261526d8186613c73565b905081810360608301526152818185613c73565b905081810360808301526152958184615200565b90509695505050505050565b6000815190506152b081613557565b92915050565b6000602082840312156152cc576152cb613423565b5b60006152da848285016152a1565b91505092915050565b60008160e01c9050919050565b600060033d111561530f5760046000803e61530c6000516152e3565b90505b90565b600060443d1015615322576153a5565b61532a613419565b60043d036004823e80513d602482011167ffffffffffffffff821117156153525750506153a5565b808201805167ffffffffffffffff81111561537057505050506153a5565b80602083010160043d03850181111561538d5750505050506153a5565b61539c82602001850186613800565b82955050505050505b90565b7f455243313135353a207472616e7366657220746f206e6f6e204552433131353560008201527f526563656976657220696d706c656d656e746572000000000000000000000000602082015250565b600061540460348361361e565b915061540f826153a8565b604082019050919050565b60006020820190508181036000830152615433816153f7565b9050919050565b7f455243313135353a204552433131353552656365697665722072656a6563746560008201527f6420746f6b656e73000000000000000000000000000000000000000000000000602082015250565b600061549660288361361e565b91506154a18261543a565b604082019050919050565b600060208201905081810360008301526154c581615489565b9050919050565b600060a0820190506154e16000830188613794565b6154ee6020830187613794565b6154fb6040830186613501565b6155086060830185613501565b818103608083015261551a8184615200565b9050969550505050505056fea2646970667358221220f1069113e1b082d810e2a5c71914f684ed6c94ccae4a80a052b2cebcb5477eb864736f6c634300080b003368747470733a2f2f676174657761792e70696e6174612e636c6f75642f697066732f",
  "immutableReferences": {},
  "source": "// SPDX-License-Identifier: MIT\npragma solidity =0.8.11;\n\nimport \"@openzeppelin/contracts/interfaces/IERC2981.sol\";\nimport \"@openzeppelin/contracts/token/ERC1155/ERC1155.sol\";\nimport \"@openzeppelin/contracts/token/ERC1155/extensions/ERC1155Burnable.sol\";\nimport \"@openzeppelin/contracts/utils/Counters.sol\";\n\nimport \"./utils/AccessProtected.sol\";\nimport \"./utils/BaseRelayRecipient.sol\";\nimport \"./ERC2981Royalties.sol\";\n\ncontract ShowtimeMT is ERC1155Burnable, ERC2981Royalties, AccessProtected, BaseRelayRecipient {\n    using Counters for Counters.Counter;\n    Counters.Counter private _tokenIds;\n    string public baseURI = \"https://gateway.pinata.cloud/ipfs/\";\n    mapping(uint256 => string) private _hashes;\n\n    constructor() ERC1155(\"\") {}\n\n    /**\n     * @dev See {IERC165-supportsInterface}.\n     */\n    function supportsInterface(bytes4 interfaceId) public view virtual override(ERC1155, IERC165) returns (bool) {\n        return interfaceId == type(IERC2981).interfaceId || super.supportsInterface(interfaceId);\n    }\n\n    /**\n     * Mint + Issue Token\n     *\n     * @param recipient - Token will be issued to recipient\n     * @param amount - amount of tokens to mint\n     * @param hash - IPFS hash\n     * @param data - additional data\n     * @param royaltyRecipient - royalty receiver address\n     * @param royaltyPercent - percentage of royalty\n     */\n    function issueToken(\n        address recipient,\n        uint256 amount,\n        string memory hash,\n        bytes memory data,\n        address royaltyRecipient,\n        uint256 royaltyPercent\n    ) public onlyMinter returns (uint256) {\n        _tokenIds.increment();\n        uint256 newTokenId = _tokenIds.current();\n        _hashes[newTokenId] = hash;\n        _mint(recipient, newTokenId, amount, data);\n        if (royaltyPercent > 0) {\n            _setTokenRoyalty(newTokenId, royaltyRecipient, royaltyPercent);\n        }\n        return newTokenId;\n    }\n\n    /**\n     * Mint + Issue Token Batch\n     *\n     * @param recipient - Token will be issued to recipient\n     * @param amounts - amounts of each token to mint\n     * @param hashes - IPFS hashes\n     * @param data - additional data\n     * @param royaltyRecipients - royalty receiver addresses\n     * @param royaltyPercents - percentages of royalty\n     */\n    function issueTokenBatch(\n        address recipient,\n        uint256[] memory amounts,\n        string[] memory hashes,\n        bytes memory data,\n        address[] memory royaltyRecipients,\n        uint256[] memory royaltyPercents\n    ) public onlyMinter returns (uint256[] memory) {\n        require(\n            amounts.length == hashes.length &&\n                royaltyRecipients.length == royaltyPercents.length &&\n                amounts.length == royaltyRecipients.length,\n            \"array length mismatch\"\n        );\n        uint256[] memory ids = new uint256[](amounts.length);\n        for (uint256 i = 0; i < amounts.length; i++) {\n            _tokenIds.increment();\n            uint256 newTokenId = _tokenIds.current();\n            _hashes[newTokenId] = hashes[i];\n            ids[i] = newTokenId;\n            if (royaltyPercents[i] > 0) {\n                _setTokenRoyalty(newTokenId, royaltyRecipients[i], royaltyPercents[i]);\n            }\n        }\n        _mintBatch(recipient, ids, amounts, data);\n        return ids;\n    }\n\n    /**\n     * Set Base URI\n     *\n     * @param _baseURI - Base URI\n     */\n    function setBaseURI(string calldata _baseURI) external onlyOwner {\n        baseURI = _baseURI;\n    }\n\n    /**\n     * Get Token URI\n     *\n     * @param tokenId - Token ID\n     */\n    function uri(uint256 tokenId) public view override returns (string memory) {\n        return string(abi.encodePacked(baseURI, _hashes[tokenId]));\n    }\n\n    /**\n     * Set Trusted Forwarder\n     *\n     * @param _trustedForwarder - Trusted Forwarder address\n     */\n    function setTrustedForwarder(address _trustedForwarder) external onlyAdmin {\n        trustedForwarder = _trustedForwarder;\n    }\n\n    /**\n     * returns the message sender\n     */\n    function _msgSender() internal view override(Context, BaseRelayRecipient) returns (address) {\n        return BaseRelayRecipient._msgSender();\n    }\n}\n",
  "sourcePath": "/Users/kosianyaegbuna/instagram-nfts/web3_instagram/contractss/contracts/ShowtimeMT.sol",
  "compiler": {
    "name": "solc",
    "version": "0.8.11+commit.d7f03943.Emscripten.clang"
  },
  "schemaVersion": "3.4.4",
  "updatedAt": "2022-01-17T21:44:28.930Z",
  "networkType": "ethereum",
  "devdoc": {
    "kind": "dev",
    "methods": {
      "balanceOf(address,uint256)": {
        "details": "See {IERC1155-balanceOf}. Requirements: - `account` cannot be the zero address."
      },
      "balanceOfBatch(address[],uint256[])": {
        "details": "See {IERC1155-balanceOfBatch}. Requirements: - `accounts` and `ids` must have the same length."
      },
      "isAdmin(address)": {
        "params": {
          "admin": "- Address of Admin"
        },
        "returns": {
          "_0": "whether minter has access"
        }
      },
      "isApprovedForAll(address,address)": {
        "details": "See {IERC1155-isApprovedForAll}."
      },
      "isMinter(address)": {
        "params": {
          "minter": "- Address of minter"
        },
        "returns": {
          "_0": "whether minter has access"
        }
      },
      "issueToken(address,uint256,string,bytes,address,uint256)": {
        "params": {
          "amount": "- amount of tokens to mint",
          "data": "- additional data",
          "hash": "- IPFS hash",
          "recipient": "- Token will be issued to recipient",
          "royaltyPercent": "- percentage of royalty",
          "royaltyRecipient": "- royalty receiver address"
        }
      },
      "issueTokenBatch(address,uint256[],string[],bytes,address[],uint256[])": {
        "params": {
          "amounts": "- amounts of each token to mint",
          "data": "- additional data",
          "hashes": "- IPFS hashes",
          "recipient": "- Token will be issued to recipient",
          "royaltyPercents": "- percentages of royalty",
          "royaltyRecipients": "- royalty receiver addresses"
        }
      },
      "owner()": {
        "details": "Returns the address of the current owner."
      },
      "renounceOwnership()": {
        "details": "Leaves the contract without owner. It will not be possible to call `onlyOwner` functions anymore. Can only be called by the current owner. NOTE: Renouncing ownership will leave the contract without an owner, thereby removing any functionality that is only available to the owner."
      },
      "safeBatchTransferFrom(address,address,uint256[],uint256[],bytes)": {
        "details": "See {IERC1155-safeBatchTransferFrom}."
      },
      "safeTransferFrom(address,address,uint256,uint256,bytes)": {
        "details": "See {IERC1155-safeTransferFrom}."
      },
      "setAdmin(address,bool)": {
        "params": {
          "admin": "- Address of Minter",
          "enabled": "- Enable/Disable Admin Access"
        }
      },
      "setApprovalForAll(address,bool)": {
        "details": "See {IERC1155-setApprovalForAll}."
      },
      "setBaseURI(string)": {
        "params": {
          "_baseURI": "- Base URI"
        }
      },
      "setMinter(address,bool)": {
        "params": {
          "enabled": "- Enable/Disable Admin Access",
          "minter": "- Address of Minter"
        }
      },
      "setMinters(address[],bool)": {
        "params": {
          "enabled": "- Enable/Disable Admin Access",
          "minters": "- Address of Minters"
        }
      },
      "setPublicMinting(bool)": {
        "params": {
          "enabled": "- Enable/Disable"
        }
      },
      "setTrustedForwarder(address)": {
        "params": {
          "_trustedForwarder": "- Trusted Forwarder address"
        }
      },
      "supportsInterface(bytes4)": {
        "details": "See {IERC165-supportsInterface}."
      },
      "transferOwnership(address)": {
        "details": "Transfers ownership of the contract to a new account (`newOwner`). Can only be called by the current owner."
      },
      "uri(uint256)": {
        "params": {
          "tokenId": "- Token ID"
        }
      }
    },
    "version": 1
  },
  "userdoc": {
    "kind": "user",
    "methods": {
      "isAdmin(address)": {
        "notice": "Check Admin Access"
      },
      "isMinter(address)": {
        "notice": "Check Minter Access"
      },
      "issueToken(address,uint256,string,bytes,address,uint256)": {
        "notice": "Mint + Issue Token"
      },
      "issueTokenBatch(address,uint256[],string[],bytes,address[],uint256[])": {
        "notice": "Mint + Issue Token Batch"
      },
      "setAdmin(address,bool)": {
        "notice": "Set Admin Access"
      },
      "setBaseURI(string)": {
        "notice": "Set Base URI"
      },
      "setMinter(address,bool)": {
        "notice": "Set Minter Access"
      },
      "setMinters(address[],bool)": {
        "notice": "Set Minter Access"
      },
      "setPublicMinting(bool)": {
        "notice": "Enable/Disable public Minting"
      },
      "setTrustedForwarder(address)": {
        "notice": "Set Trusted Forwarder"
      },
      "uri(uint256)": {
        "notice": "Get Token URI"
      }
    },
    "version": 1
  }
}