{
  "contractName": "ShowtimeV1Market",
  "abi": [
    {
      "inputs": [
        {
          "internalType": "address",
          "name": "_nft",
          "type": "address"
        },
        {
          "internalType": "address",
          "name": "_trustedForwarder",
          "type": "address"
        },
        {
          "internalType": "address[]",
          "name": "_initialCurrencies",
          "type": "address[]"
        }
      ],
      "stateMutability": "nonpayable",
      "type": "constructor"
    },
    {
      "anonymous": false,
      "inputs": [
        {
          "indexed": true,
          "internalType": "address",
          "name": "account",
          "type": "address"
        },
        {
          "indexed": false,
          "internalType": "address",
          "name": "currency",
          "type": "address"
        },
        {
          "indexed": false,
          "internalType": "bool",
          "name": "accepted",
          "type": "bool"
        }
      ],
      "name": "AcceptedCurrencyChanged",
      "type": "event"
    },
    {
      "anonymous": false,
      "inputs": [
        {
          "indexed": true,
          "internalType": "uint256",
          "name": "listingId",
          "type": "uint256"
        },
        {
          "indexed": true,
          "internalType": "address",
          "name": "seller",
          "type": "address"
        },
        {
          "indexed": true,
          "internalType": "uint256",
          "name": "tokenId",
          "type": "uint256"
        }
      ],
      "name": "ListingCreated",
      "type": "event"
    },
    {
      "anonymous": false,
      "inputs": [
        {
          "indexed": true,
          "internalType": "uint256",
          "name": "listingId",
          "type": "uint256"
        },
        {
          "indexed": true,
          "internalType": "address",
          "name": "seller",
          "type": "address"
        }
      ],
      "name": "ListingDeleted",
      "type": "event"
    },
    {
      "anonymous": false,
      "inputs": [
        {
          "indexed": true,
          "internalType": "address",
          "name": "account",
          "type": "address"
        },
        {
          "indexed": false,
          "internalType": "uint256",
          "name": "maxRoyaltiesBasisPoints",
          "type": "uint256"
        }
      ],
      "name": "MaxRoyaltiesUpdated",
      "type": "event"
    },
    {
      "anonymous": false,
      "inputs": [
        {
          "indexed": true,
          "internalType": "address",
          "name": "previousOwner",
          "type": "address"
        },
        {
          "indexed": true,
          "internalType": "address",
          "name": "newOwner",
          "type": "address"
        }
      ],
      "name": "OwnershipTransferred",
      "type": "event"
    },
    {
      "anonymous": false,
      "inputs": [
        {
          "indexed": false,
          "internalType": "address",
          "name": "account",
          "type": "address"
        }
      ],
      "name": "Paused",
      "type": "event"
    },
    {
      "anonymous": false,
      "inputs": [
        {
          "indexed": true,
          "internalType": "address",
          "name": "account",
          "type": "address"
        },
        {
          "indexed": false,
          "internalType": "bool",
          "name": "royaltiesEnabled",
          "type": "bool"
        }
      ],
      "name": "RoyaltiesEnabledChanged",
      "type": "event"
    },
    {
      "anonymous": false,
      "inputs": [
        {
          "indexed": true,
          "internalType": "address",
          "name": "receiver",
          "type": "address"
        },
        {
          "indexed": false,
          "internalType": "contract IERC20",
          "name": "currency",
          "type": "address"
        },
        {
          "indexed": false,
          "internalType": "uint256",
          "name": "amount",
          "type": "uint256"
        }
      ],
      "name": "RoyaltyPaid",
      "type": "event"
    },
    {
      "anonymous": false,
      "inputs": [
        {
          "indexed": true,
          "internalType": "uint256",
          "name": "listingId",
          "type": "uint256"
        },
        {
          "indexed": true,
          "internalType": "address",
          "name": "seller",
          "type": "address"
        },
        {
          "indexed": true,
          "internalType": "address",
          "name": "buyer",
          "type": "address"
        },
        {
          "indexed": false,
          "internalType": "address",
          "name": "receiver",
          "type": "address"
        },
        {
          "indexed": false,
          "internalType": "uint256",
          "name": "quantity",
          "type": "uint256"
        }
      ],
      "name": "SaleCompleted",
      "type": "event"
    },
    {
      "anonymous": false,
      "inputs": [
        {
          "indexed": false,
          "internalType": "address",
          "name": "account",
          "type": "address"
        }
      ],
      "name": "Unpaused",
      "type": "event"
    },
    {
      "inputs": [
        {
          "internalType": "address",
          "name": "",
          "type": "address"
        }
      ],
      "name": "acceptedCurrencies",
      "outputs": [
        {
          "internalType": "bool",
          "name": "",
          "type": "bool"
        }
      ],
      "stateMutability": "view",
      "type": "function"
    },
    {
      "inputs": [
        {
          "internalType": "address",
          "name": "forwarder",
          "type": "address"
        }
      ],
      "name": "isTrustedForwarder",
      "outputs": [
        {
          "internalType": "bool",
          "name": "",
          "type": "bool"
        }
      ],
      "stateMutability": "view",
      "type": "function"
    },
    {
      "inputs": [
        {
          "internalType": "uint256",
          "name": "",
          "type": "uint256"
        }
      ],
      "name": "listings",
      "outputs": [
        {
          "internalType": "uint256",
          "name": "tokenId",
          "type": "uint256"
        },
        {
          "internalType": "uint256",
          "name": "quantity",
          "type": "uint256"
        },
        {
          "internalType": "uint256",
          "name": "price",
          "type": "uint256"
        },
        {
          "internalType": "contract IERC20",
          "name": "currency",
          "type": "address"
        },
        {
          "internalType": "address",
          "name": "seller",
          "type": "address"
        }
      ],
      "stateMutability": "view",
      "type": "function"
    },
    {
      "inputs": [],
      "name": "maxRoyaltiesBasisPoints",
      "outputs": [
        {
          "internalType": "uint256",
          "name": "",
          "type": "uint256"
        }
      ],
      "stateMutability": "view",
      "type": "function"
    },
    {
      "inputs": [],
      "name": "nft",
      "outputs": [
        {
          "internalType": "contract ShowtimeMT",
          "name": "",
          "type": "address"
        }
      ],
      "stateMutability": "view",
      "type": "function"
    },
    {
      "inputs": [],
      "name": "owner",
      "outputs": [
        {
          "internalType": "address",
          "name": "",
          "type": "address"
        }
      ],
      "stateMutability": "view",
      "type": "function"
    },
    {
      "inputs": [],
      "name": "paused",
      "outputs": [
        {
          "internalType": "bool",
          "name": "",
          "type": "bool"
        }
      ],
      "stateMutability": "view",
      "type": "function"
    },
    {
      "inputs": [],
      "name": "renounceOwnership",
      "outputs": [],
      "stateMutability": "nonpayable",
      "type": "function"
    },
    {
      "inputs": [],
      "name": "royaltiesEnabled",
      "outputs": [
        {
          "internalType": "bool",
          "name": "",
          "type": "bool"
        }
      ],
      "stateMutability": "view",
      "type": "function"
    },
    {
      "inputs": [
        {
          "internalType": "address",
          "name": "newOwner",
          "type": "address"
        }
      ],
      "name": "transferOwnership",
      "outputs": [],
      "stateMutability": "nonpayable",
      "type": "function"
    },
    {
      "inputs": [],
      "name": "trustedForwarder",
      "outputs": [
        {
          "internalType": "address",
          "name": "",
          "type": "address"
        }
      ],
      "stateMutability": "view",
      "type": "function"
    },
    {
      "inputs": [
        {
          "internalType": "uint256",
          "name": "_tokenId",
          "type": "uint256"
        },
        {
          "internalType": "uint256",
          "name": "_quantity",
          "type": "uint256"
        },
        {
          "internalType": "uint256",
          "name": "_price",
          "type": "uint256"
        },
        {
          "internalType": "address",
          "name": "_currency",
          "type": "address"
        }
      ],
      "name": "createSale",
      "outputs": [
        {
          "internalType": "uint256",
          "name": "listingId",
          "type": "uint256"
        }
      ],
      "stateMutability": "nonpayable",
      "type": "function"
    },
    {
      "inputs": [
        {
          "internalType": "uint256",
          "name": "_listingId",
          "type": "uint256"
        }
      ],
      "name": "cancelSale",
      "outputs": [],
      "stateMutability": "nonpayable",
      "type": "function"
    },
    {
      "inputs": [
        {
          "internalType": "uint256",
          "name": "_listingId",
          "type": "uint256"
        }
      ],
      "name": "availableForSale",
      "outputs": [
        {
          "internalType": "uint256",
          "name": "",
          "type": "uint256"
        }
      ],
      "stateMutability": "view",
      "type": "function"
    },
    {
      "inputs": [
        {
          "internalType": "uint256",
          "name": "_listingId",
          "type": "uint256"
        },
        {
          "internalType": "uint256",
          "name": "_tokenId",
          "type": "uint256"
        },
        {
          "internalType": "uint256",
          "name": "_quantity",
          "type": "uint256"
        },
        {
          "internalType": "uint256",
          "name": "_price",
          "type": "uint256"
        },
        {
          "internalType": "address",
          "name": "_currency",
          "type": "address"
        },
        {
          "internalType": "address",
          "name": "_receiver",
          "type": "address"
        }
      ],
      "name": "buy",
      "outputs": [],
      "stateMutability": "nonpayable",
      "type": "function"
    },
    {
      "inputs": [
        {
          "internalType": "bool",
          "name": "newValue",
          "type": "bool"
        }
      ],
      "name": "setRoyaltiesEnabled",
      "outputs": [],
      "stateMutability": "nonpayable",
      "type": "function"
    },
    {
      "inputs": [
        {
          "internalType": "uint256",
          "name": "newValue",
          "type": "uint256"
        }
      ],
      "name": "setMaxRoyalties",
      "outputs": [],
      "stateMutability": "nonpayable",
      "type": "function"
    },
    {
      "inputs": [
        {
          "internalType": "address",
          "name": "currency",
          "type": "address"
        },
        {
          "internalType": "bool",
          "name": "accepted",
          "type": "bool"
        }
      ],
      "name": "setAcceptedCurrency",
      "outputs": [],
      "stateMutability": "nonpayable",
      "type": "function"
    },
    {
      "inputs": [],
      "name": "pause",
      "outputs": [],
      "stateMutability": "nonpayable",
      "type": "function"
    },
    {
      "inputs": [],
      "name": "unpause",
      "outputs": [],
      "stateMutability": "nonpayable",
      "type": "function"
    }
  ],
  "bytecode": "0x60a060405260018060146101000a81548160ff0219169083151502179055506113886002553480156200003157600080fd5b5060405162003d8438038062003d84833981810160405281019062000057919062000624565b620000776200006b620002a160201b60201c565b620002bd60201b60201c565b60008060146101000a81548160ff021916908315150217905550620000bd8373ffffffffffffffffffffffffffffffffffffffff166200038160201b62001a6a1760201c565b620000ff576040517f08c379a0000000000000000000000000000000000000000000000000000000008152600401620000f69062000700565b60405180910390fd5b8273ffffffffffffffffffffffffffffffffffffffff1660808173ffffffffffffffffffffffffffffffffffffffff168152505060005b81518110156200025657620001898282815181106200015a576200015962000722565b5b602002602001015173ffffffffffffffffffffffffffffffffffffffff166200038160201b62001a6a1760201c565b620001cb576040517f08c379a0000000000000000000000000000000000000000000000000000000008152600401620001c290620007c7565b60405180910390fd5b600160036000848481518110620001e757620001e662000722565b5b602002602001015173ffffffffffffffffffffffffffffffffffffffff1673ffffffffffffffffffffffffffffffffffffffff16815260200190815260200160002060006101000a81548160ff02191690831515021790555080806200024d9062000822565b91505062000136565b5081600160006101000a81548173ffffffffffffffffffffffffffffffffffffffff021916908373ffffffffffffffffffffffffffffffffffffffff16021790555050505062000870565b6000620002b86200039460201b62001a7d1760201c565b905090565b60008060009054906101000a900473ffffffffffffffffffffffffffffffffffffffff169050816000806101000a81548173ffffffffffffffffffffffffffffffffffffffff021916908373ffffffffffffffffffffffffffffffffffffffff1602179055508173ffffffffffffffffffffffffffffffffffffffff168173ffffffffffffffffffffffffffffffffffffffff167f8be0079c531659141344cd1fd0a4f28419497f9722a3daafe3b4186f6b6457e060405160405180910390a35050565b600080823b905060008111915050919050565b60006018600036905010158015620003b95750620003b833620003dc60201b60201c565b5b15620003cf57601436033560601c9050620003d8565b339050620003d9565b5b90565b6000600160009054906101000a900473ffffffffffffffffffffffffffffffffffffffff1673ffffffffffffffffffffffffffffffffffffffff168273ffffffffffffffffffffffffffffffffffffffff16149050919050565b6000604051905090565b600080fd5b600080fd5b600073ffffffffffffffffffffffffffffffffffffffff82169050919050565b600062000477826200044a565b9050919050565b62000489816200046a565b81146200049557600080fd5b50565b600081519050620004a9816200047e565b92915050565b600080fd5b6000601f19601f8301169050919050565b7f4e487b7100000000000000000000000000000000000000000000000000000000600052604160045260246000fd5b620004ff82620004b4565b810181811067ffffffffffffffff82111715620005215762000520620004c5565b5b80604052505050565b60006200053662000436565b9050620005448282620004f4565b919050565b600067ffffffffffffffff821115620005675762000566620004c5565b5b602082029050602081019050919050565b600080fd5b6000620005946200058e8462000549565b6200052a565b90508083825260208201905060208402830185811115620005ba57620005b962000578565b5b835b81811015620005e75780620005d2888262000498565b845260208401935050602081019050620005bc565b5050509392505050565b600082601f830112620006095762000608620004af565b5b81516200061b8482602086016200057d565b91505092915050565b60008060006060848603121562000640576200063f62000440565b5b6000620006508682870162000498565b9350506020620006638682870162000498565b925050604084015167ffffffffffffffff81111562000687576200068662000445565b5b6200069586828701620005f1565b9150509250925092565b600082825260208201905092915050565b7f6d75737420626520636f6e747261637420616464726573730000000000000000600082015250565b6000620006e86018836200069f565b9150620006f582620006b0565b602082019050919050565b600060208201905081810360008301526200071b81620006d9565b9050919050565b7f4e487b7100000000000000000000000000000000000000000000000000000000600052603260045260246000fd5b7f5f696e697469616c43757272656e63696573206d75737420636f6e7461696e2060008201527f636f6e7472616374206164647265737365730000000000000000000000000000602082015250565b6000620007af6032836200069f565b9150620007bc8262000751565b604082019050919050565b60006020820190508181036000830152620007e281620007a0565b9050919050565b7f4e487b7100000000000000000000000000000000000000000000000000000000600052601160045260246000fd5b6000819050919050565b60006200082f8262000818565b91507fffffffffffffffffffffffffffffffffffffffffffffffffffffffffffffffff821415620008655762000864620007e9565b5b600182019050919050565b6080516134dc620008a860003960008181610590015281816107c201528181610a39015281816115ae0152611d0e01526134dc6000f3fe608060405234801561001057600080fd5b506004361061012c5760003560e01c80637da0a877116100ad578063de74e57b11610071578063de74e57b146102e7578063e833adb31461031b578063f2e2e2aa14610337578063f2fde38b14610367578063fe08248b146103835761012c565b80637da0a877146102695780638456cb59146102875780638da5cb5b14610291578063bd94b005146102af578063ca8882cc146102cb5761012c565b80635d3a12b6116100f45780635d3a12b6146101c35780636dc4cdc0146101e1578063715018a6146102115780637337894f1461021b5780637c16e25f146102395761012c565b80630d7cdd41146101315780633f4ba83a1461014d57806347ccca0214610157578063572b6c05146101755780635c975abb146101a5575b600080fd5b61014b6004803603810190610146919061228a565b61039f565b005b6101556104c1565b005b61015f61058e565b60405161016c9190612336565b60405180910390f35b61018f600480360381019061018a919061238f565b6105b2565b60405161019c91906123d7565b60405180910390f35b6101ad61060c565b6040516101ba91906123d7565b60405180910390f35b6101cb610622565b6040516101d89190612401565b60405180910390f35b6101fb60048036038101906101f6919061228a565b610628565b6040516102089190612401565b60405180910390f35b610219610876565b005b6102236108fe565b60405161023091906123d7565b60405180910390f35b610253600480360381019061024e919061241c565b610911565b6040516102609190612401565b60405180910390f35b610271610c93565b60405161027e9190612492565b60405180910390f35b61028f610cb9565b005b610299610d87565b6040516102a69190612492565b60405180910390f35b6102c960048036038101906102c4919061228a565b610db0565b005b6102e560048036038101906102e091906124ad565b610fcf565b005b61030160048036038101906102fc919061228a565b611653565b60405161031295949392919061255b565b60405180910390f35b610335600480360381019061033091906125da565b6116c9565b005b610351600480360381019061034c919061238f565b6117c6565b60405161035e91906123d7565b60405180910390f35b610381600480360381019061037c919061238f565b6117e6565b005b61039d60048036038101906103989190612607565b6118de565b005b6103a7611ab9565b73ffffffffffffffffffffffffffffffffffffffff166103c5610d87565b73ffffffffffffffffffffffffffffffffffffffff161461041b576040517f08c379a0000000000000000000000000000000000000000000000000000000008152600401610412906126a4565b60405180910390fd5b612710811115610460576040517f08c379a000000000000000000000000000000000000000000000000000000000815260040161045790612736565b60405180910390fd5b8060028190555061046f611ab9565b73ffffffffffffffffffffffffffffffffffffffff167f32436977e8d65ba6044432b46f556761a04011124b0494151dfe21045d53fd616002546040516104b69190612401565b60405180910390a250565b6104c961060c565b610508576040517f08c379a00000000000000000000000000000000000000000000000000000000081526004016104ff906127a2565b60405180910390fd5b610510611ab9565b73ffffffffffffffffffffffffffffffffffffffff1661052e610d87565b73ffffffffffffffffffffffffffffffffffffffff1614610584576040517f08c379a000000000000000000000000000000000000000000000000000000000815260040161057b906126a4565b60405180910390fd5b61058c611ac8565b565b7f000000000000000000000000000000000000000000000000000000000000000081565b6000600160009054906101000a900473ffffffffffffffffffffffffffffffffffffffff1673ffffffffffffffffffffffffffffffffffffffff168273ffffffffffffffffffffffffffffffffffffffff16149050919050565b60008060149054906101000a900460ff16905090565b60025481565b600081600073ffffffffffffffffffffffffffffffffffffffff166004600083815260200190815260200160002060040160009054906101000a900473ffffffffffffffffffffffffffffffffffffffff1673ffffffffffffffffffffffffffffffffffffffff1614156106d1576040517f08c379a00000000000000000000000000000000000000000000000000000000081526004016106c89061280e565b60405180910390fd5b6000600460008581526020019081526020016000206040518060a00160405290816000820154815260200160018201548152602001600282015481526020016003820160009054906101000a900473ffffffffffffffffffffffffffffffffffffffff1673ffffffffffffffffffffffffffffffffffffffff1673ffffffffffffffffffffffffffffffffffffffff1681526020016004820160009054906101000a900473ffffffffffffffffffffffffffffffffffffffff1673ffffffffffffffffffffffffffffffffffffffff1673ffffffffffffffffffffffffffffffffffffffff1681525050905061086d7f000000000000000000000000000000000000000000000000000000000000000073ffffffffffffffffffffffffffffffffffffffff1662fdd58e836080015184600001516040518363ffffffff1660e01b815260040161082292919061282e565b602060405180830381865afa15801561083f573d6000803e3d6000fd5b505050506040513d601f19601f82011682018060405250810190610863919061286c565b8260200151611b69565b92505050919050565b61087e611ab9565b73ffffffffffffffffffffffffffffffffffffffff1661089c610d87565b73ffffffffffffffffffffffffffffffffffffffff16146108f2576040517f08c379a00000000000000000000000000000000000000000000000000000000081526004016108e9906126a4565b60405180910390fd5b6108fc6000611b82565b565b600160149054906101000a900460ff1681565b600061091b61060c565b1561095b576040517f08c379a0000000000000000000000000000000000000000000000000000000008152600401610952906128e5565b60405180910390fd5b6000610965611ab9565b9050600360008473ffffffffffffffffffffffffffffffffffffffff1673ffffffffffffffffffffffffffffffffffffffff16815260200190815260200160002060009054906101000a900460ff166109f3576040517f08c379a00000000000000000000000000000000000000000000000000000000081526004016109ea90612951565b60405180910390fd5b60008511610a36576040517f08c379a0000000000000000000000000000000000000000000000000000000008152600401610a2d906129bd565b60405180910390fd5b847f000000000000000000000000000000000000000000000000000000000000000073ffffffffffffffffffffffffffffffffffffffff1662fdd58e83896040518363ffffffff1660e01b8152600401610a9192919061282e565b602060405180830381865afa158015610aae573d6000803e3d6000fd5b505050506040513d601f19601f82011682018060405250810190610ad2919061286c565b1015610b13576040517f08c379a0000000000000000000000000000000000000000000000000000000008152600401610b0a90612a4f565b60405180910390fd5b60006040518060a001604052808881526020018781526020018681526020018573ffffffffffffffffffffffffffffffffffffffff1681526020018373ffffffffffffffffffffffffffffffffffffffff1681525090506005549250806004600085815260200190815260200160002060008201518160000155602082015181600101556040820151816002015560608201518160030160006101000a81548173ffffffffffffffffffffffffffffffffffffffff021916908373ffffffffffffffffffffffffffffffffffffffff16021790555060808201518160040160006101000a81548173ffffffffffffffffffffffffffffffffffffffff021916908373ffffffffffffffffffffffffffffffffffffffff160217905550905050600560008154809291906001019190505550868273ffffffffffffffffffffffffffffffffffffffff16847f9adf89188ff96bbe0e772b6a9345d935a240c2bd656be8db63db0d091e92cb9d60405160405180910390a45050949350505050565b600160009054906101000a900473ffffffffffffffffffffffffffffffffffffffff1681565b610cc161060c565b15610d01576040517f08c379a0000000000000000000000000000000000000000000000000000000008152600401610cf8906128e5565b60405180910390fd5b610d09611ab9565b73ffffffffffffffffffffffffffffffffffffffff16610d27610d87565b73ffffffffffffffffffffffffffffffffffffffff1614610d7d576040517f08c379a0000000000000000000000000000000000000000000000000000000008152600401610d74906126a4565b60405180910390fd5b610d85611c46565b565b60008060009054906101000a900473ffffffffffffffffffffffffffffffffffffffff16905090565b80600073ffffffffffffffffffffffffffffffffffffffff166004600083815260200190815260200160002060040160009054906101000a900473ffffffffffffffffffffffffffffffffffffffff1673ffffffffffffffffffffffffffffffffffffffff161415610e57576040517f08c379a0000000000000000000000000000000000000000000000000000000008152600401610e4e9061280e565b60405180910390fd5b81610e60611ab9565b73ffffffffffffffffffffffffffffffffffffffff166004600083815260200190815260200160002060040160009054906101000a900473ffffffffffffffffffffffffffffffffffffffff1673ffffffffffffffffffffffffffffffffffffffff1614610f03576040517f08c379a0000000000000000000000000000000000000000000000000000000008152600401610efa90612abb565b60405180910390fd5b60046000848152602001908152602001600020600080820160009055600182016000905560028201600090556003820160006101000a81549073ffffffffffffffffffffffffffffffffffffffff02191690556004820160006101000a81549073ffffffffffffffffffffffffffffffffffffffff02191690555050610f87611ab9565b73ffffffffffffffffffffffffffffffffffffffff16837f5832f888aea12cc23bd891f2d9fd4bd01b8ce0e22898b6e7cee1519f5bd4695460405160405180910390a3505050565b85600073ffffffffffffffffffffffffffffffffffffffff166004600083815260200190815260200160002060040160009054906101000a900473ffffffffffffffffffffffffffffffffffffffff1673ffffffffffffffffffffffffffffffffffffffff161415611076576040517f08c379a000000000000000000000000000000000000000000000000000000000815260040161106d9061280e565b60405180910390fd5b61107e61060c565b156110be576040517f08c379a00000000000000000000000000000000000000000000000000000000081526004016110b5906128e5565b60405180910390fd5b600073ffffffffffffffffffffffffffffffffffffffff168273ffffffffffffffffffffffffffffffffffffffff16141561112e576040517f08c379a000000000000000000000000000000000000000000000000000000000815260040161112590612b27565b60405180910390fd5b6000600460008981526020019081526020016000206040518060a00160405290816000820154815260200160018201548152602001600282015481526020016003820160009054906101000a900473ffffffffffffffffffffffffffffffffffffffff1673ffffffffffffffffffffffffffffffffffffffff1673ffffffffffffffffffffffffffffffffffffffff1681526020016004820160009054906101000a900473ffffffffffffffffffffffffffffffffffffffff1673ffffffffffffffffffffffffffffffffffffffff1673ffffffffffffffffffffffffffffffffffffffff1681525050905086816000015114611260576040517f08c379a000000000000000000000000000000000000000000000000000000000815260040161125790612b93565b60405180910390fd5b848160400151146112a6576040517f08c379a000000000000000000000000000000000000000000000000000000000815260040161129d90612bff565b60405180910390fd5b8373ffffffffffffffffffffffffffffffffffffffff16816060015173ffffffffffffffffffffffffffffffffffffffff1614611318576040517f08c379a000000000000000000000000000000000000000000000000000000000815260040161130f90612c6b565b60405180910390fd5b806080015173ffffffffffffffffffffffffffffffffffffffff168373ffffffffffffffffffffffffffffffffffffffff16141561138b576040517f08c379a000000000000000000000000000000000000000000000000000000000815260040161138290612cfd565b60405180910390fd5b600061139689610628565b9050808711156113db576040517f08c379a00000000000000000000000000000000000000000000000000000000081526004016113d290612d8f565b60405180910390fd5b60008783604001516113ed9190612dde565b9050600080611400856000015184611ce9565b9150915082811115611447576040517f08c379a000000000000000000000000000000000000000000000000000000000815260040161143e90612e84565b60405180910390fd5b61145c8c8b866114579190612ea4565b611e0f565b611464611ab9565b73ffffffffffffffffffffffffffffffffffffffff16856080015173ffffffffffffffffffffffffffffffffffffffff168d7ff39126904780ca25e454353cd8ea48acfb5ebd4435b5af932f0b6ccb70fd0c4c8a8e6040516114c792919061282e565b60405180910390a46000811115611565578173ffffffffffffffffffffffffffffffffffffffff167fbdf0502df1b76d58521b2a929580ca100c2121e0ae38717b260d9cfa44c23b32866060015183604051611524929190612ed8565b60405180910390a2611564611537611ab9565b8383886060015173ffffffffffffffffffffffffffffffffffffffff16611f39909392919063ffffffff16565b5b6115ac611570611ab9565b866080015183866115819190612ea4565b886060015173ffffffffffffffffffffffffffffffffffffffff16611f39909392919063ffffffff16565b7f000000000000000000000000000000000000000000000000000000000000000073ffffffffffffffffffffffffffffffffffffffff1663f242432a86608001518988600001518e6040518563ffffffff1660e01b81526004016116139493929190612f38565b600060405180830381600087803b15801561162d57600080fd5b505af1158015611641573d6000803e3d6000fd5b50505050505050505050505050505050565b60046020528060005260406000206000915090508060000154908060010154908060020154908060030160009054906101000a900473ffffffffffffffffffffffffffffffffffffffff16908060040160009054906101000a900473ffffffffffffffffffffffffffffffffffffffff16905085565b6116d1611ab9565b73ffffffffffffffffffffffffffffffffffffffff166116ef610d87565b73ffffffffffffffffffffffffffffffffffffffff1614611745576040517f08c379a000000000000000000000000000000000000000000000000000000000815260040161173c906126a4565b60405180910390fd5b80600160146101000a81548160ff021916908315150217905550611767611ab9565b73ffffffffffffffffffffffffffffffffffffffff167f15c6cf0a974ba861ebd0804336ac7dc0fe65fa60011b42b931f847a4bbcac6a5600160149054906101000a900460ff166040516117bb91906123d7565b60405180910390a250565b60036020528060005260406000206000915054906101000a900460ff1681565b6117ee611ab9565b73ffffffffffffffffffffffffffffffffffffffff1661180c610d87565b73ffffffffffffffffffffffffffffffffffffffff1614611862576040517f08c379a0000000000000000000000000000000000000000000000000000000008152600401611859906126a4565b60405180910390fd5b600073ffffffffffffffffffffffffffffffffffffffff168173ffffffffffffffffffffffffffffffffffffffff1614156118d2576040517f08c379a00000000000000000000000000000000000000000000000000000000081526004016118c990613002565b60405180910390fd5b6118db81611b82565b50565b6118e6611ab9565b73ffffffffffffffffffffffffffffffffffffffff16611904610d87565b73ffffffffffffffffffffffffffffffffffffffff161461195a576040517f08c379a0000000000000000000000000000000000000000000000000000000008152600401611951906126a4565b60405180910390fd5b6119798273ffffffffffffffffffffffffffffffffffffffff16611a6a565b6119b8576040517f08c379a00000000000000000000000000000000000000000000000000000000081526004016119af9061306e565b60405180910390fd5b80600360008473ffffffffffffffffffffffffffffffffffffffff1673ffffffffffffffffffffffffffffffffffffffff16815260200190815260200160002060006101000a81548160ff021916908315150217905550611a17611ab9565b73ffffffffffffffffffffffffffffffffffffffff167f95b6f588c2babc83ad1017f493cef85c0ac8ded9eb9ed774fdadd98e364c1c308383604051611a5e92919061308e565b60405180910390a25050565b600080823b905060008111915050919050565b60006018600036905010158015611a995750611a98336105b2565b5b15611aad57601436033560601c9050611ab5565b339050611ab6565b5b90565b6000611ac3611a7d565b905090565b611ad061060c565b611b0f576040517f08c379a0000000000000000000000000000000000000000000000000000000008152600401611b06906127a2565b60405180910390fd5b60008060146101000a81548160ff0219169083151502179055507f5db9ee0a495bf2e6ff9c91a7834c1ba4fdd244a5e8aa4e537bd38aeae4b073aa611b52611ab9565b604051611b5f9190612492565b60405180910390a1565b6000818310611b785781611b7a565b825b905092915050565b60008060009054906101000a900473ffffffffffffffffffffffffffffffffffffffff169050816000806101000a81548173ffffffffffffffffffffffffffffffffffffffff021916908373ffffffffffffffffffffffffffffffffffffffff1602179055508173ffffffffffffffffffffffffffffffffffffffff168173ffffffffffffffffffffffffffffffffffffffff167f8be0079c531659141344cd1fd0a4f28419497f9722a3daafe3b4186f6b6457e060405160405180910390a35050565b611c4e61060c565b15611c8e576040517f08c379a0000000000000000000000000000000000000000000000000000000008152600401611c85906128e5565b60405180910390fd5b6001600060146101000a81548160ff0219169083151502179055507f62e78cea01bee320cd4e420270b5ea74000d11b0c9f74754ebdbfc544b05a258611cd2611ab9565b604051611cdf9190612492565b60405180910390a1565b600080600160149054906101000a900460ff16611d0c5760008091509150611e08565b7f000000000000000000000000000000000000000000000000000000000000000073ffffffffffffffffffffffffffffffffffffffff16632a55205a85856040518363ffffffff1660e01b8152600401611d679291906130b7565b6040805180830381865afa158015611d83573d6000803e3d6000fd5b505050506040513d601f19601f82011682018060405250810190611da791906130f5565b8092508193505050600073ffffffffffffffffffffffffffffffffffffffff168273ffffffffffffffffffffffffffffffffffffffff161480611dea5750600081145b15611dfb5760008091509150611e08565b611e058382611fc2565b90505b9250929050565b6000811415611f195760006004600084815260200190815260200160002060040160009054906101000a900473ffffffffffffffffffffffffffffffffffffffff16905060046000848152602001908152602001600020600080820160009055600182016000905560028201600090556003820160006101000a81549073ffffffffffffffffffffffffffffffffffffffff02191690556004820160006101000a81549073ffffffffffffffffffffffffffffffffffffffff021916905550508073ffffffffffffffffffffffffffffffffffffffff16837f5832f888aea12cc23bd891f2d9fd4bd01b8ce0e22898b6e7cee1519f5bd4695460405160405180910390a350611f35565b8060046000848152602001908152602001600020600101819055505b5050565b611fbc846323b872dd60e01b858585604051602401611f5a93929190613135565b604051602081830303815290604052907bffffffffffffffffffffffffffffffffffffffffffffffffffffffff19166020820180517bffffffffffffffffffffffffffffffffffffffffffffffffffffffff8381831617835250505050611ff5565b50505050565b60008061271060025485611fd69190612dde565b611fe0919061319b565b9050611fec8184611b69565b91505092915050565b6000612057826040518060400160405280602081526020017f5361666545524332303a206c6f772d6c6576656c2063616c6c206661696c65648152508573ffffffffffffffffffffffffffffffffffffffff166120bc9092919063ffffffff16565b90506000815111156120b7578080602001905181019061207791906131e1565b6120b6576040517f08c379a00000000000000000000000000000000000000000000000000000000081526004016120ad90613280565b60405180910390fd5b5b505050565b60606120cb84846000856120d4565b90509392505050565b606082471015612119576040517f08c379a000000000000000000000000000000000000000000000000000000000815260040161211090613312565b60405180910390fd5b61212285611a6a565b612161576040517f08c379a00000000000000000000000000000000000000000000000000000000081526004016121589061337e565b60405180910390fd5b6000808673ffffffffffffffffffffffffffffffffffffffff16858760405161218a9190613418565b60006040518083038185875af1925050503d80600081146121c7576040519150601f19603f3d011682016040523d82523d6000602084013e6121cc565b606091505b50915091506121dc8282866121e8565b92505050949350505050565b606083156121f857829050612248565b60008351111561220b5782518084602001fd5b816040517f08c379a000000000000000000000000000000000000000000000000000000000815260040161223f9190613484565b60405180910390fd5b9392505050565b600080fd5b6000819050919050565b61226781612254565b811461227257600080fd5b50565b6000813590506122848161225e565b92915050565b6000602082840312156122a05761229f61224f565b5b60006122ae84828501612275565b91505092915050565b600073ffffffffffffffffffffffffffffffffffffffff82169050919050565b6000819050919050565b60006122fc6122f76122f2846122b7565b6122d7565b6122b7565b9050919050565b600061230e826122e1565b9050919050565b600061232082612303565b9050919050565b61233081612315565b82525050565b600060208201905061234b6000830184612327565b92915050565b600061235c826122b7565b9050919050565b61236c81612351565b811461237757600080fd5b50565b60008135905061238981612363565b92915050565b6000602082840312156123a5576123a461224f565b5b60006123b38482850161237a565b91505092915050565b60008115159050919050565b6123d1816123bc565b82525050565b60006020820190506123ec60008301846123c8565b92915050565b6123fb81612254565b82525050565b600060208201905061241660008301846123f2565b92915050565b600080600080608085870312156124365761243561224f565b5b600061244487828801612275565b945050602061245587828801612275565b935050604061246687828801612275565b92505060606124778782880161237a565b91505092959194509250565b61248c81612351565b82525050565b60006020820190506124a76000830184612483565b92915050565b60008060008060008060c087890312156124ca576124c961224f565b5b60006124d889828a01612275565b96505060206124e989828a01612275565b95505060406124fa89828a01612275565b945050606061250b89828a01612275565b935050608061251c89828a0161237a565b92505060a061252d89828a0161237a565b9150509295509295509295565b600061254582612303565b9050919050565b6125558161253a565b82525050565b600060a08201905061257060008301886123f2565b61257d60208301876123f2565b61258a60408301866123f2565b612597606083018561254c565b6125a46080830184612483565b9695505050505050565b6125b7816123bc565b81146125c257600080fd5b50565b6000813590506125d4816125ae565b92915050565b6000602082840312156125f0576125ef61224f565b5b60006125fe848285016125c5565b91505092915050565b6000806040838503121561261e5761261d61224f565b5b600061262c8582860161237a565b925050602061263d858286016125c5565b9150509250929050565b600082825260208201905092915050565b7f4f776e61626c653a2063616c6c6572206973206e6f7420746865206f776e6572600082015250565b600061268e602083612647565b915061269982612658565b602082019050919050565b600060208201905081810360008301526126bd81612681565b9050919050565b7f6d6178526f79616c746965734261736973506f696e7473206d7573742062652060008201527f3c3d203130302500000000000000000000000000000000000000000000000000602082015250565b6000612720602783612647565b915061272b826126c4565b604082019050919050565b6000602082019050818103600083015261274f81612713565b9050919050565b7f5061757361626c653a206e6f7420706175736564000000000000000000000000600082015250565b600061278c601483612647565b915061279782612756565b602082019050919050565b600060208201905081810360008301526127bb8161277f565b9050919050565b7f6c697374696e6720646f65736e27742065786973740000000000000000000000600082015250565b60006127f8601583612647565b9150612803826127c2565b602082019050919050565b60006020820190508181036000830152612827816127eb565b9050919050565b60006040820190506128436000830185612483565b61285060208301846123f2565b9392505050565b6000815190506128668161225e565b92915050565b6000602082840312156128825761288161224f565b5b600061289084828501612857565b91505092915050565b7f5061757361626c653a2070617573656400000000000000000000000000000000600082015250565b60006128cf601083612647565b91506128da82612899565b602082019050919050565b600060208201905081810360008301526128fe816128c2565b9050919050565b7f63757272656e6379206e6f742061636365707465640000000000000000000000600082015250565b600061293b601583612647565b915061294682612905565b602082019050919050565b6000602082019050818103600083015261296a8161292e565b9050919050565b7f7175616e74697479206d7573742062652067726561746572207468616e203000600082015250565b60006129a7601f83612647565b91506129b282612971565b602082019050919050565b600060208201905081810360008301526129d68161299a565b9050919050565b7f73656c6c657220646f6573206e6f74206f776e206c6973746564207175616e7460008201527f697479206f6620746f6b656e7300000000000000000000000000000000000000602082015250565b6000612a39602d83612647565b9150612a44826129dd565b604082019050919050565b60006020820190508181036000830152612a6881612a2c565b9050919050565b7f63616c6c6572206e6f742073656c6c6572000000000000000000000000000000600082015250565b6000612aa5601183612647565b9150612ab082612a6f565b602082019050919050565b60006020820190508181036000830152612ad481612a98565b9050919050565b7f5f72656365697665722063616e6e6f7420626520616464726573732030000000600082015250565b6000612b11601d83612647565b9150612b1c82612adb565b602082019050919050565b60006020820190508181036000830152612b4081612b04565b9050919050565b7f5f746f6b656e496420646f6573206e6f74206d61746368206c697374696e6700600082015250565b6000612b7d601f83612647565b9150612b8882612b47565b602082019050919050565b60006020820190508181036000830152612bac81612b70565b9050919050565b7f5f707269636520646f6573206e6f74206d61746368206c697374696e67000000600082015250565b6000612be9601d83612647565b9150612bf482612bb3565b602082019050919050565b60006020820190508181036000830152612c1881612bdc565b9050919050565b7f5f63757272656e637920646f6573206e6f74206d61746368206c697374696e67600082015250565b6000612c55602083612647565b9150612c6082612c1f565b602082019050919050565b60006020820190508181036000830152612c8481612c48565b9050919050565b7f73656c6c6572206973206e6f7420612076616c6964207265636569766572206160008201527f6464726573730000000000000000000000000000000000000000000000000000602082015250565b6000612ce7602683612647565b9150612cf282612c8b565b604082019050919050565b60006020820190508181036000830152612d1681612cda565b9050919050565b7f7265717569726564206d6f7265207468616e20617661696c61626c652071756160008201527f6e74697479000000000000000000000000000000000000000000000000000000602082015250565b6000612d79602583612647565b9150612d8482612d1d565b604082019050919050565b60006020820190508181036000830152612da881612d6c565b9050919050565b7f4e487b7100000000000000000000000000000000000000000000000000000000600052601160045260246000fd5b6000612de982612254565b9150612df483612254565b9250817fffffffffffffffffffffffffffffffffffffffffffffffffffffffffffffffff0483118215151615612e2d57612e2c612daf565b5b828202905092915050565b7f726f79616c747920616d6f756e7420746f6f2062696700000000000000000000600082015250565b6000612e6e601683612647565b9150612e7982612e38565b602082019050919050565b60006020820190508181036000830152612e9d81612e61565b9050919050565b6000612eaf82612254565b9150612eba83612254565b925082821015612ecd57612ecc612daf565b5b828203905092915050565b6000604082019050612eed600083018561254c565b612efa60208301846123f2565b9392505050565b600082825260208201905092915050565b50565b6000612f22600083612f01565b9150612f2d82612f12565b600082019050919050565b600060a082019050612f4d6000830187612483565b612f5a6020830186612483565b612f6760408301856123f2565b612f7460608301846123f2565b8181036080830152612f8581612f15565b905095945050505050565b7f4f776e61626c653a206e6577206f776e657220697320746865207a65726f206160008201527f6464726573730000000000000000000000000000000000000000000000000000602082015250565b6000612fec602683612647565b9150612ff782612f90565b604082019050919050565b6000602082019050818103600083015261301b81612fdf565b9050919050565b7f5f63757272656e637920213d20636f6e74726163742061646472657373000000600082015250565b6000613058601d83612647565b915061306382613022565b602082019050919050565b600060208201905081810360008301526130878161304b565b9050919050565b60006040820190506130a36000830185612483565b6130b060208301846123c8565b9392505050565b60006040820190506130cc60008301856123f2565b6130d960208301846123f2565b9392505050565b6000815190506130ef81612363565b92915050565b6000806040838503121561310c5761310b61224f565b5b600061311a858286016130e0565b925050602061312b85828601612857565b9150509250929050565b600060608201905061314a6000830186612483565b6131576020830185612483565b61316460408301846123f2565b949350505050565b7f4e487b7100000000000000000000000000000000000000000000000000000000600052601260045260246000fd5b60006131a682612254565b91506131b183612254565b9250826131c1576131c061316c565b5b828204905092915050565b6000815190506131db816125ae565b92915050565b6000602082840312156131f7576131f661224f565b5b6000613205848285016131cc565b91505092915050565b7f5361666545524332303a204552433230206f7065726174696f6e20646964206e60008201527f6f74207375636365656400000000000000000000000000000000000000000000602082015250565b600061326a602a83612647565b91506132758261320e565b604082019050919050565b600060208201905081810360008301526132998161325d565b9050919050565b7f416464726573733a20696e73756666696369656e742062616c616e636520666f60008201527f722063616c6c0000000000000000000000000000000000000000000000000000602082015250565b60006132fc602683612647565b9150613307826132a0565b604082019050919050565b6000602082019050818103600083015261332b816132ef565b9050919050565b7f416464726573733a2063616c6c20746f206e6f6e2d636f6e7472616374000000600082015250565b6000613368601d83612647565b915061337382613332565b602082019050919050565b600060208201905081810360008301526133978161335b565b9050919050565b600081519050919050565b600081905092915050565b60005b838110156133d25780820151818401526020810190506133b7565b838111156133e1576000848401525b50505050565b60006133f28261339e565b6133fc81856133a9565b935061340c8185602086016133b4565b80840191505092915050565b600061342482846133e7565b915081905092915050565b600081519050919050565b6000601f19601f8301169050919050565b60006134568261342f565b6134608185612647565b93506134708185602086016133b4565b6134798161343a565b840191505092915050565b6000602082019050818103600083015261349e818461344b565b90509291505056fea264697066735822122034d394b597b1647eb2a287c50b37646bc5c9410f68f59938ce20b3e6c992353264736f6c634300080b0033",
  "immutableReferences": {
    "2830": [
      {
        "length": 32,
        "start": 1424
      },
      {
        "length": 32,
        "start": 1986
      },
      {
        "length": 32,
        "start": 2617
      },
      {
        "length": 32,
        "start": 5550
      },
      {
        "length": 32,
        "start": 7438
      }
    ]
  },
  "source": "// SPDX-License-Identifier: MIT\npragma solidity =0.8.11;\n\nimport { Pausable } from \"@openzeppelin/contracts/security/Pausable.sol\";\nimport { IERC1155 } from \"@openzeppelin/contracts/token/ERC1155/IERC1155.sol\";\nimport { IERC20 } from \"@openzeppelin/contracts/token/ERC20/IERC20.sol\";\nimport { SafeERC20 } from \"@openzeppelin/contracts/token/ERC20/utils/SafeERC20.sol\";\nimport { Address } from \"@openzeppelin/contracts/utils/Address.sol\";\nimport { Ownable, Context } from \"@openzeppelin/contracts/access/Ownable.sol\";\nimport { Math } from \"@openzeppelin/contracts/utils/math/Math.sol\";\n\nimport { BaseRelayRecipient } from \"./utils/BaseRelayRecipient.sol\";\nimport { ShowtimeMT } from \"./ShowtimeMT.sol\";\n\n/// @title Showtime V1 Market for the Showtime ERC1155 Token\n///\n/// This is a non-escrow marketplace that allows users to list Showtime NFTs for sale\n/// for a fixed price, using a configurable list of allowed ERC20 currencies.\n///\n/// @dev listings have no expiration date, but frontends may choose to hide old listings\n///\n/// Built with feedback from the community! \n/// Big thanks to:\n///     aaronsebesta chejazi chiuzon garythung mariobyn_eth MarkBeylin sina_eth_\n///     StErMi theramblingboy timidan_x transmissions11 William94029369\ncontract ShowtimeV1Market is Ownable, Pausable, BaseRelayRecipient {\n    using SafeERC20 for IERC20;\n    using Address for address;\n\n    /// the address of the ShowtimeMT NFT (ERC1155) contract\n    ShowtimeMT public immutable nft;\n\n    /// @dev listings only contain a tokenId because we are implicitly only listing tokens from the ShowtimeMT contract\n    struct Listing {\n        uint256 tokenId;\n        uint256 quantity;\n        uint256 price;\n        IERC20 currency;\n        address seller;\n    }\n\n    /// ============ Mutable storage ============\n\n    /// royalties payments can be turned on/off by the owner of the contract\n    bool public royaltiesEnabled = true;\n\n    /// the configurable cap on royalties, enforced during the sale (50% by default)\n    uint256 public maxRoyaltiesBasisPoints = 50_00;\n\n    /// the configurable list of accepted ERC20 contract addresses\n    mapping(address => bool) public acceptedCurrencies;\n\n    /// maps a listing id to the corresponding Listing\n    mapping(uint256 => Listing) public listings;\n\n    /// a simple counter to assign ids to new listings\n    uint256 listingCounter;\n\n    /// ============ Modifiers ============\n\n    modifier onlySeller(uint256 _id) {\n        require(listings[_id].seller == _msgSender(), \"caller not seller\");\n        _;\n    }\n\n    modifier listingExists(uint256 _id) {\n        require(listings[_id].seller != address(0), \"listing doesn't exist\");\n        _;\n    }\n\n    /// ============ Events ============\n\n    /// marketplace and listing related events\n    event ListingCreated(uint256 indexed listingId, address indexed seller, uint256 indexed tokenId);\n    event ListingDeleted(uint256 indexed listingId, address indexed seller);\n    event RoyaltyPaid(address indexed receiver, IERC20 currency, uint256 amount);\n    event SaleCompleted(\n        uint256 indexed listingId,\n        address indexed seller,\n        address indexed buyer,\n        address receiver,\n        uint256 quantity\n    );\n\n    /// admin events\n    event AcceptedCurrencyChanged(address indexed account, address currency, bool accepted);\n    event RoyaltiesEnabledChanged(address indexed account, bool royaltiesEnabled);\n    event MaxRoyaltiesUpdated(address indexed account, uint256 maxRoyaltiesBasisPoints);\n\n    /// ============ Constructor ============\n\n    constructor(\n        address _nft,\n        address _trustedForwarder,\n        address[] memory _initialCurrencies\n    ) {\n        /// initialize the address of the NFT contract\n        require(_nft.isContract(), \"must be contract address\");\n        nft = ShowtimeMT(_nft);\n\n        for (uint256 i = 0; i < _initialCurrencies.length; i++) {\n            require(_initialCurrencies[i].isContract(), \"_initialCurrencies must contain contract addresses\");\n            acceptedCurrencies[_initialCurrencies[i]] = true;\n        }\n\n        /// set the trustedForwarder only once, see BaseRelayRecipient\n        trustedForwarder = _trustedForwarder;\n    }\n\n    /// ============ Marketplace functions ============\n\n    /// @notice `setApprovalForAll` before calling\n    /// @notice creates a new Listing\n    /// @param _quantity the number of tokens to be listed\n    /// @param _price the price per token\n    function createSale(\n        uint256 _tokenId,\n        uint256 _quantity,\n        uint256 _price,\n        address _currency\n    ) external whenNotPaused returns (uint256 listingId) {\n        address seller = _msgSender();\n\n        require(acceptedCurrencies[_currency], \"currency not accepted\");\n        require(_quantity > 0, \"quantity must be greater than 0\");\n        require(nft.balanceOf(seller, _tokenId) >= _quantity, \"seller does not own listed quantity of tokens\");\n\n        Listing memory listing = Listing({\n            tokenId: _tokenId,\n            quantity: _quantity,\n            price: _price,\n            currency: IERC20(_currency),\n            seller: seller\n        });\n\n        listingId = listingCounter;\n        listings[listingId] = listing;\n\n        // no need to check for overflows here\n        unchecked {\n            listingCounter++;\n        }\n\n        emit ListingCreated(listingId, seller, _tokenId);\n    }\n\n    /// @notice cancel an active sale\n    function cancelSale(uint256 _listingId) external listingExists(_listingId) onlySeller(_listingId) {\n        delete listings[_listingId];\n\n        emit ListingDeleted(_listingId, _msgSender());\n    }\n\n    /// @notice the seller may own fewer NFTs than the listed quantity\n    function availableForSale(uint256 _listingId) public view listingExists(_listingId) returns (uint256) {\n        Listing memory listing = listings[_listingId];\n        return Math.min(nft.balanceOf(listing.seller, listing.tokenId), listing.quantity);\n    }\n\n    /// @notice Complete a sale\n    /// @param _quantity the number of tokens to purchase\n    /// @param _receiver the address that will receive the NFTs\n    /// @dev we let the transaction complete even if the currency is no longer accepted in order to avoid stuck listings\n    function buy(\n        uint256 _listingId,\n        uint256 _tokenId,\n        uint256 _quantity,\n        uint256 _price,\n        address _currency,\n        address _receiver\n    ) external listingExists(_listingId) whenNotPaused {\n        /// 1. Checks\n        require(_receiver != address(0), \"_receiver cannot be address 0\");\n\n        Listing memory listing = listings[_listingId];\n\n        // to prevent issues with block reorgs, we need to make sure that the expectations of the buyer (tokenId,\n        // price and currency) match with the listing\n        require(listing.tokenId == _tokenId, \"_tokenId does not match listing\");\n        require(listing.price == _price, \"_price does not match listing\");\n        require(address(listing.currency) == _currency, \"_currency does not match listing\");\n\n        // disable buying something from the seller for the seller\n        // note that the seller can still buy from themselves as a gift for someone else\n        // the difference with a transfer is that this will result in royalties being paid out\n        require(_receiver != listing.seller, \"seller is not a valid receiver address\");\n\n        uint256 availableQuantity = availableForSale(_listingId);\n        require(_quantity <= availableQuantity, \"required more than available quantity\");\n\n        uint256 totalPrice = listing.price * _quantity;\n        (address royaltyReceiver, uint256 royaltyAmount) = getRoyalties(listing.tokenId, totalPrice);\n        require(royaltyAmount <= totalPrice, \"royalty amount too big\");\n\n        /// 2. Effects\n        updateListing(_listingId, availableQuantity - _quantity);\n\n        emit SaleCompleted(_listingId, listing.seller, _msgSender(), _receiver, _quantity);\n\n        /// 3. Interactions\n        // transfer royalties\n        if (royaltyAmount > 0) {\n            emit RoyaltyPaid(royaltyReceiver, listing.currency, royaltyAmount);\n            listing.currency.safeTransferFrom(_msgSender(), royaltyReceiver, royaltyAmount);\n        }\n\n        // the royalty amount is deducted from the price paid by the buyer\n        listing.currency.safeTransferFrom(_msgSender(), listing.seller, totalPrice - royaltyAmount);\n\n        // transfer the NFTs from the seller to the buyer\n        nft.safeTransferFrom(listing.seller, _receiver, listing.tokenId, _quantity, \"\");\n    }\n\n    /// ============ Utility functions ============\n\n    /// @notice update the listing with the remaining quantity, or delete it if newQuantity is zero\n    function updateListing(uint256 listingId, uint256 newQuantity) private {\n        if (newQuantity == 0) {\n            address seller = listings[listingId].seller;\n            delete listings[listingId];\n            emit ListingDeleted(listingId, seller);\n        } else {\n            listings[listingId].quantity = newQuantity;\n        }\n    }\n\n    function getRoyalties(uint256 tokenId, uint256 price)\n        private\n        view\n        returns (address receiver, uint256 royaltyAmount)\n    {\n        if (!royaltiesEnabled) {\n            return (address(0), 0);\n        }\n\n        (receiver, royaltyAmount) = nft.royaltyInfo(tokenId, price);\n\n        // we ignore royalties to address 0, otherwise the transfer would fail\n        // and it would result in NFTs that are impossible to sell\n        if (receiver == address(0) || royaltyAmount == 0) {\n            return (address(0), 0);\n        }\n\n        royaltyAmount = capRoyalties(price, royaltyAmount);\n    }\n\n    function capRoyalties(uint256 salePrice, uint256 royaltyAmount) private view returns (uint256) {\n        uint256 maxRoyaltiesAmount = (salePrice * maxRoyaltiesBasisPoints) / 100_00;\n        return Math.min(maxRoyaltiesAmount, royaltyAmount);\n    }\n\n    function _msgSender() internal view override(Context, BaseRelayRecipient) returns (address) {\n        return BaseRelayRecipient._msgSender();\n    }\n\n    /// ============ Admin functions ============\n\n    /// @notice switch royalty payments on/off\n    function setRoyaltiesEnabled(bool newValue) external onlyOwner {\n        royaltiesEnabled = newValue;\n\n        emit RoyaltiesEnabledChanged(_msgSender(), royaltiesEnabled);\n    }\n\n    /// @notice sets the maximum royalties that will be paid during sales, in basis points\n    /// ex: if a token requests 75% royalties but maxRoyaltiesBasisPoints is set to 60_00 (= 60%),\n    ///    then 60% will be paid out instead of the 75% requested\n    function setMaxRoyalties(uint256 newValue) external onlyOwner {\n        require(newValue <= 100_00, \"maxRoyaltiesBasisPoints must be <= 100%\");\n        maxRoyaltiesBasisPoints = newValue;\n\n        emit MaxRoyaltiesUpdated(_msgSender(), maxRoyaltiesBasisPoints);\n    }\n\n    /// @notice add a currency to the accepted currency list\n    function setAcceptedCurrency(address currency, bool accepted) external onlyOwner {\n        require(currency.isContract(), \"_currency != contract address\");\n        acceptedCurrencies[currency] = accepted;\n\n        emit AcceptedCurrencyChanged(_msgSender(), currency, accepted);\n    }\n\n    /// @notice pause the contract\n    function pause() external whenNotPaused onlyOwner {\n        _pause();\n    }\n\n    /// @notice unpause the contract\n    function unpause() external whenPaused onlyOwner {\n        _unpause();\n    }\n}\n",
  "sourcePath": "/Users/kosianyaegbuna/instagram-nfts/web3_instagram/contractss/contracts/ShowtimeV1Market.sol",
  "compiler": {
    "name": "solc",
    "version": "0.8.11+commit.d7f03943.Emscripten.clang"
  },
  "schemaVersion": "3.4.4",
  "updatedAt": "2022-01-11T23:19:07.195Z",
  "devdoc": {
    "details": "listings have no expiration date, but frontends may choose to hide old listings Built with feedback from the community!  Big thanks to:     aaronsebesta chejazi chiuzon garythung mariobyn_eth MarkBeylin sina_eth_     StErMi theramblingboy timidan_x transmissions11 William94029369",
    "kind": "dev",
    "methods": {
      "buy(uint256,uint256,uint256,uint256,address,address)": {
        "details": "we let the transaction complete even if the currency is no longer accepted in order to avoid stuck listings",
        "params": {
          "_quantity": "the number of tokens to purchase",
          "_receiver": "the address that will receive the NFTs"
        }
      },
      "createSale(uint256,uint256,uint256,address)": {
        "params": {
          "_price": "the price per token",
          "_quantity": "the number of tokens to be listed"
        }
      },
      "owner()": {
        "details": "Returns the address of the current owner."
      },
      "paused()": {
        "details": "Returns true if the contract is paused, and false otherwise."
      },
      "renounceOwnership()": {
        "details": "Leaves the contract without owner. It will not be possible to call `onlyOwner` functions anymore. Can only be called by the current owner. NOTE: Renouncing ownership will leave the contract without an owner, thereby removing any functionality that is only available to the owner."
      },
      "transferOwnership(address)": {
        "details": "Transfers ownership of the contract to a new account (`newOwner`). Can only be called by the current owner."
      }
    },
    "title": "Showtime V1 Market for the Showtime ERC1155 Token This is a non-escrow marketplace that allows users to list Showtime NFTs for sale for a fixed price, using a configurable list of allowed ERC20 currencies.",
    "version": 1
  },
  "userdoc": {
    "events": {
      "AcceptedCurrencyChanged(address,address,bool)": {
        "notice": "admin events"
      },
      "ListingCreated(uint256,address,uint256)": {
        "notice": "marketplace and listing related events"
      }
    },
    "kind": "user",
    "methods": {
      "acceptedCurrencies(address)": {
        "notice": "the configurable list of accepted ERC20 contract addresses"
      },
      "availableForSale(uint256)": {
        "notice": "the seller may own fewer NFTs than the listed quantity"
      },
      "buy(uint256,uint256,uint256,uint256,address,address)": {
        "notice": "Complete a sale"
      },
      "cancelSale(uint256)": {
        "notice": "cancel an active sale"
      },
      "constructor": {
        "notice": "============ Constructor ============"
      },
      "createSale(uint256,uint256,uint256,address)": {
        "notice": "`setApprovalForAll` before callingcreates a new Listing"
      },
      "listings(uint256)": {
        "notice": "maps a listing id to the corresponding Listing"
      },
      "maxRoyaltiesBasisPoints()": {
        "notice": "the configurable cap on royalties, enforced during the sale (50% by default)"
      },
      "nft()": {
        "notice": "the address of the ShowtimeMT NFT (ERC1155) contract"
      },
      "pause()": {
        "notice": "pause the contract"
      },
      "royaltiesEnabled()": {
        "notice": "royalties payments can be turned on/off by the owner of the contract"
      },
      "setAcceptedCurrency(address,bool)": {
        "notice": "add a currency to the accepted currency list"
      },
      "setMaxRoyalties(uint256)": {
        "notice": "sets the maximum royalties that will be paid during sales, in basis points ex: if a token requests 75% royalties but maxRoyaltiesBasisPoints is set to 60_00 (= 60%),    then 60% will be paid out instead of the 75% requested"
      },
      "setRoyaltiesEnabled(bool)": {
        "notice": "switch royalty payments on/off"
      },
      "unpause()": {
        "notice": "unpause the contract"
      }
    },
    "version": 1
  }
}